{
  "address": "0x025030bdaa159f281cae63873e68313a703725a5",
  "abi": [
    {
      "inputs": [
        {
          "components": [
            {
              "internalType": "address",
              "name": "gelatoGasPriceOracle",
              "type": "address"
            },
            {
              "internalType": "bytes",
              "name": "oracleRequestData",
              "type": "bytes"
            },
            {
              "internalType": "uint256",
              "name": "gelatoMaxGas",
              "type": "uint256"
            },
            {
              "internalType": "uint256",
              "name": "internalGasRequirement",
              "type": "uint256"
            },
            {
              "internalType": "uint256",
              "name": "minExecutorStake",
              "type": "uint256"
            },
            {
              "internalType": "uint256",
              "name": "executorSuccessShare",
              "type": "uint256"
            },
            {
              "internalType": "uint256",
              "name": "sysAdminSuccessShare",
              "type": "uint256"
            },
            {
              "internalType": "uint256",
              "name": "totalSuccessShare",
              "type": "uint256"
            }
          ],
          "internalType": "struct IGelatoSysAdmin.GelatoSysAdminInitialState",
          "name": "_",
          "type": "tuple"
        }
      ],
      "stateMutability": "nonpayable",
      "type": "constructor"
    },
    {
      "anonymous": false,
      "inputs": [
        {
          "indexed": true,
          "internalType": "address",
          "name": "executor",
          "type": "address"
        },
        {
          "indexed": true,
          "internalType": "uint256",
          "name": "taskReceiptId",
          "type": "uint256"
        },
        {
          "indexed": false,
          "internalType": "string",
          "name": "reason",
          "type": "string"
        }
      ],
      "name": "LogCanExecFailed",
      "type": "event"
    },
    {
      "anonymous": false,
      "inputs": [
        {
          "indexed": true,
          "internalType": "address",
          "name": "executor",
          "type": "address"
        },
        {
          "indexed": true,
          "internalType": "uint256",
          "name": "taskReceiptId",
          "type": "uint256"
        },
        {
          "indexed": false,
          "internalType": "uint256",
          "name": "executorRefund",
          "type": "uint256"
        },
        {
          "indexed": false,
          "internalType": "string",
          "name": "reason",
          "type": "string"
        }
      ],
      "name": "LogExecReverted",
      "type": "event"
    },
    {
      "anonymous": false,
      "inputs": [
        {
          "indexed": true,
          "internalType": "address",
          "name": "executor",
          "type": "address"
        },
        {
          "indexed": true,
          "internalType": "uint256",
          "name": "taskReceiptId",
          "type": "uint256"
        },
        {
          "indexed": false,
          "internalType": "uint256",
          "name": "executorSuccessFee",
          "type": "uint256"
        },
        {
          "indexed": false,
          "internalType": "uint256",
          "name": "sysAdminSuccessFee",
          "type": "uint256"
        }
      ],
      "name": "LogExecSuccess",
      "type": "event"
    },
    {
      "anonymous": false,
      "inputs": [
        {
          "indexed": true,
          "internalType": "address",
          "name": "provider",
          "type": "address"
        },
        {
          "indexed": true,
          "internalType": "address",
          "name": "oldExecutor",
          "type": "address"
        },
        {
          "indexed": true,
          "internalType": "address",
          "name": "newExecutor",
          "type": "address"
        }
      ],
      "name": "LogExecutorAssignedExecutor",
      "type": "event"
    },
    {
      "anonymous": false,
      "inputs": [
        {
          "indexed": true,
          "internalType": "address",
          "name": "executor",
          "type": "address"
        },
        {
          "indexed": false,
          "internalType": "uint256",
          "name": "withdrawAmount",
          "type": "uint256"
        }
      ],
      "name": "LogExecutorBalanceWithdrawn",
      "type": "event"
    },
    {
      "anonymous": false,
      "inputs": [
        {
          "indexed": true,
          "internalType": "address",
          "name": "executor",
          "type": "address"
        },
        {
          "indexed": false,
          "internalType": "uint256",
          "name": "oldStake",
          "type": "uint256"
        },
        {
          "indexed": false,
          "internalType": "uint256",
          "name": "newStake",
          "type": "uint256"
        }
      ],
      "name": "LogExecutorStaked",
      "type": "event"
    },
    {
      "anonymous": false,
      "inputs": [
        {
          "indexed": false,
          "internalType": "uint256",
          "name": "oldShare",
          "type": "uint256"
        },
        {
          "indexed": false,
          "internalType": "uint256",
          "name": "newShare",
          "type": "uint256"
        },
        {
          "indexed": false,
          "internalType": "uint256",
          "name": "total",
          "type": "uint256"
        }
      ],
      "name": "LogExecutorSuccessShareSet",
      "type": "event"
    },
    {
      "anonymous": false,
      "inputs": [
        {
          "indexed": true,
          "internalType": "address",
          "name": "executor",
          "type": "address"
        }
      ],
      "name": "LogExecutorUnstaked",
      "type": "event"
    },
    {
      "anonymous": false,
      "inputs": [
        {
          "indexed": true,
          "internalType": "address",
          "name": "provider",
          "type": "address"
        },
        {
          "indexed": false,
          "internalType": "uint256",
          "name": "amount",
          "type": "uint256"
        },
        {
          "indexed": false,
          "internalType": "uint256",
          "name": "newProviderFunds",
          "type": "uint256"
        }
      ],
      "name": "LogFundsProvided",
      "type": "event"
    },
    {
      "anonymous": false,
      "inputs": [
        {
          "indexed": true,
          "internalType": "address",
          "name": "provider",
          "type": "address"
        },
        {
          "indexed": false,
          "internalType": "uint256",
          "name": "realWithdrawAmount",
          "type": "uint256"
        },
        {
          "indexed": false,
          "internalType": "uint256",
          "name": "newProviderFunds",
          "type": "uint256"
        }
      ],
      "name": "LogFundsUnprovided",
      "type": "event"
    },
    {
      "anonymous": false,
      "inputs": [
        {
          "indexed": true,
          "internalType": "address",
          "name": "oldOracle",
          "type": "address"
        },
        {
          "indexed": true,
          "internalType": "address",
          "name": "newOracle",
          "type": "address"
        }
      ],
      "name": "LogGelatoGasPriceOracleSet",
      "type": "event"
    },
    {
      "anonymous": false,
      "inputs": [
        {
          "indexed": false,
          "internalType": "uint256",
          "name": "oldMaxGas",
          "type": "uint256"
        },
        {
          "indexed": false,
          "internalType": "uint256",
          "name": "newMaxGas",
          "type": "uint256"
        }
      ],
      "name": "LogGelatoMaxGasSet",
      "type": "event"
    },
    {
      "anonymous": false,
      "inputs": [
        {
          "indexed": false,
          "internalType": "uint256",
          "name": "oldRequirment",
          "type": "uint256"
        },
        {
          "indexed": false,
          "internalType": "uint256",
          "name": "newRequirment",
          "type": "uint256"
        }
      ],
      "name": "LogInternalGasRequirementSet",
      "type": "event"
    },
    {
      "anonymous": false,
      "inputs": [
        {
          "indexed": false,
          "internalType": "uint256",
          "name": "oldMin",
          "type": "uint256"
        },
        {
          "indexed": false,
          "internalType": "uint256",
          "name": "newMin",
          "type": "uint256"
        }
      ],
      "name": "LogMinExecutorStakeSet",
      "type": "event"
    },
    {
      "anonymous": false,
      "inputs": [
        {
          "indexed": false,
          "internalType": "bytes",
          "name": "oldData",
          "type": "bytes"
        },
        {
          "indexed": false,
          "internalType": "bytes",
          "name": "newData",
          "type": "bytes"
        }
      ],
      "name": "LogOracleRequestDataSet",
      "type": "event"
    },
    {
      "anonymous": false,
      "inputs": [
        {
          "indexed": true,
          "internalType": "address",
          "name": "provider",
          "type": "address"
        },
        {
          "indexed": true,
          "internalType": "address",
          "name": "oldExecutor",
          "type": "address"
        },
        {
          "indexed": true,
          "internalType": "address",
          "name": "newExecutor",
          "type": "address"
        }
      ],
      "name": "LogProviderAssignedExecutor",
      "type": "event"
    },
    {
      "anonymous": false,
      "inputs": [
        {
          "indexed": true,
          "internalType": "address",
          "name": "provider",
          "type": "address"
        },
        {
          "indexed": true,
          "internalType": "contract IGelatoProviderModule",
          "name": "module",
          "type": "address"
        }
      ],
      "name": "LogProviderModuleAdded",
      "type": "event"
    },
    {
      "anonymous": false,
      "inputs": [
        {
          "indexed": true,
          "internalType": "address",
          "name": "provider",
          "type": "address"
        },
        {
          "indexed": true,
          "internalType": "contract IGelatoProviderModule",
          "name": "module",
          "type": "address"
        }
      ],
      "name": "LogProviderModuleRemoved",
      "type": "event"
    },
    {
      "anonymous": false,
      "inputs": [
        {
          "indexed": false,
          "internalType": "uint256",
          "name": "oldBalance",
          "type": "uint256"
        },
        {
          "indexed": false,
          "internalType": "uint256",
          "name": "newBalance",
          "type": "uint256"
        }
      ],
      "name": "LogSysAdminFundsWithdrawn",
      "type": "event"
    },
    {
      "anonymous": false,
      "inputs": [
        {
          "indexed": false,
          "internalType": "uint256",
          "name": "oldShare",
          "type": "uint256"
        },
        {
          "indexed": false,
          "internalType": "uint256",
          "name": "newShare",
          "type": "uint256"
        },
        {
          "indexed": false,
          "internalType": "uint256",
          "name": "total",
          "type": "uint256"
        }
      ],
      "name": "LogSysAdminSuccessShareSet",
      "type": "event"
    },
    {
      "anonymous": false,
      "inputs": [
        {
          "indexed": true,
          "internalType": "uint256",
          "name": "taskReceiptId",
          "type": "uint256"
        },
        {
          "indexed": true,
          "internalType": "address",
          "name": "cancellor",
          "type": "address"
        }
      ],
      "name": "LogTaskCancelled",
      "type": "event"
    },
    {
      "anonymous": false,
      "inputs": [
        {
          "indexed": true,
          "internalType": "address",
          "name": "provider",
          "type": "address"
        },
        {
          "indexed": false,
          "internalType": "bytes32",
          "name": "taskSpecHash",
          "type": "bytes32"
        },
        {
          "indexed": false,
          "internalType": "uint256",
          "name": "oldTaskSpecGasPriceCeil",
          "type": "uint256"
        },
        {
          "indexed": false,
          "internalType": "uint256",
          "name": "newTaskSpecGasPriceCeil",
          "type": "uint256"
        }
      ],
      "name": "LogTaskSpecGasPriceCeilSet",
      "type": "event"
    },
    {
      "anonymous": false,
      "inputs": [
        {
          "indexed": true,
          "internalType": "address",
          "name": "provider",
          "type": "address"
        },
        {
          "indexed": true,
          "internalType": "bytes32",
          "name": "taskSpecHash",
          "type": "bytes32"
        }
      ],
      "name": "LogTaskSpecProvided",
      "type": "event"
    },
    {
      "anonymous": false,
      "inputs": [
        {
          "indexed": true,
          "internalType": "address",
          "name": "provider",
          "type": "address"
        },
        {
          "indexed": true,
          "internalType": "bytes32",
          "name": "taskSpecHash",
          "type": "bytes32"
        }
      ],
      "name": "LogTaskSpecUnprovided",
      "type": "event"
    },
    {
      "anonymous": false,
      "inputs": [
        {
          "indexed": true,
          "internalType": "uint256",
          "name": "taskReceiptId",
          "type": "uint256"
        },
        {
          "indexed": true,
          "internalType": "bytes32",
          "name": "taskReceiptHash",
          "type": "bytes32"
        },
        {
          "components": [
            {
              "internalType": "uint256",
              "name": "id",
              "type": "uint256"
            },
            {
              "internalType": "address",
              "name": "userProxy",
              "type": "address"
            },
            {
              "components": [
                {
                  "internalType": "address",
                  "name": "addr",
                  "type": "address"
                },
                {
                  "internalType": "contract IGelatoProviderModule",
                  "name": "module",
                  "type": "address"
                }
              ],
              "internalType": "struct Provider",
              "name": "provider",
              "type": "tuple"
            },
            {
              "internalType": "uint256",
              "name": "index",
              "type": "uint256"
            },
            {
              "components": [
                {
                  "components": [
                    {
                      "internalType": "contract IGelatoCondition",
                      "name": "inst",
                      "type": "address"
                    },
                    {
                      "internalType": "bytes",
                      "name": "data",
                      "type": "bytes"
                    }
                  ],
                  "internalType": "struct Condition[]",
                  "name": "conditions",
                  "type": "tuple[]"
                },
                {
                  "components": [
                    {
                      "internalType": "address",
                      "name": "addr",
                      "type": "address"
                    },
                    {
                      "internalType": "bytes",
                      "name": "data",
                      "type": "bytes"
                    },
                    {
                      "internalType": "enum Operation",
                      "name": "operation",
                      "type": "uint8"
                    },
                    {
                      "internalType": "enum DataFlow",
                      "name": "dataFlow",
                      "type": "uint8"
                    },
                    {
                      "internalType": "uint256",
                      "name": "value",
                      "type": "uint256"
                    },
                    {
                      "internalType": "bool",
                      "name": "termsOkCheck",
                      "type": "bool"
                    }
                  ],
                  "internalType": "struct Action[]",
                  "name": "actions",
                  "type": "tuple[]"
                },
                {
                  "internalType": "uint256",
                  "name": "selfProviderGasLimit",
                  "type": "uint256"
                },
                {
                  "internalType": "uint256",
                  "name": "selfProviderGasPriceCeil",
                  "type": "uint256"
                }
              ],
              "internalType": "struct Task[]",
              "name": "tasks",
              "type": "tuple[]"
            },
            {
              "internalType": "uint256",
              "name": "expiryDate",
              "type": "uint256"
            },
            {
              "internalType": "uint256",
              "name": "cycleId",
              "type": "uint256"
            },
            {
              "internalType": "uint256",
              "name": "submissionsLeft",
              "type": "uint256"
            }
          ],
          "indexed": false,
          "internalType": "struct TaskReceipt",
          "name": "taskReceipt",
          "type": "tuple"
        }
      ],
      "name": "LogTaskSubmitted",
      "type": "event"
    },
    {
      "anonymous": false,
      "inputs": [
        {
          "indexed": true,
          "internalType": "address",
          "name": "previousOwner",
          "type": "address"
        },
        {
          "indexed": true,
          "internalType": "address",
          "name": "newOwner",
          "type": "address"
        }
      ],
      "name": "OwnershipTransferred",
      "type": "event"
    },
    {
      "inputs": [],
      "name": "EXEC_TX_OVERHEAD",
      "outputs": [
        {
          "internalType": "uint256",
          "name": "",
          "type": "uint256"
        }
      ],
      "stateMutability": "view",
      "type": "function"
    },
    {
      "inputs": [],
      "name": "NO_CEIL",
      "outputs": [
        {
          "internalType": "uint256",
          "name": "",
          "type": "uint256"
        }
      ],
      "stateMutability": "view",
      "type": "function"
    },
    {
      "inputs": [
        {
          "internalType": "contract IGelatoProviderModule[]",
          "name": "_modules",
          "type": "address[]"
        }
      ],
      "name": "addProviderModules",
      "outputs": [],
      "stateMutability": "nonpayable",
      "type": "function"
    },
    {
      "inputs": [
        {
          "components": [
            {
              "internalType": "uint256",
              "name": "id",
              "type": "uint256"
            },
            {
              "internalType": "address",
              "name": "userProxy",
              "type": "address"
            },
            {
              "components": [
                {
                  "internalType": "address",
                  "name": "addr",
                  "type": "address"
                },
                {
                  "internalType": "contract IGelatoProviderModule",
                  "name": "module",
                  "type": "address"
                }
              ],
              "internalType": "struct Provider",
              "name": "provider",
              "type": "tuple"
            },
            {
              "internalType": "uint256",
              "name": "index",
              "type": "uint256"
            },
            {
              "components": [
                {
                  "components": [
                    {
                      "internalType": "contract IGelatoCondition",
                      "name": "inst",
                      "type": "address"
                    },
                    {
                      "internalType": "bytes",
                      "name": "data",
                      "type": "bytes"
                    }
                  ],
                  "internalType": "struct Condition[]",
                  "name": "conditions",
                  "type": "tuple[]"
                },
                {
                  "components": [
                    {
                      "internalType": "address",
                      "name": "addr",
                      "type": "address"
                    },
                    {
                      "internalType": "bytes",
                      "name": "data",
                      "type": "bytes"
                    },
                    {
                      "internalType": "enum Operation",
                      "name": "operation",
                      "type": "uint8"
                    },
                    {
                      "internalType": "enum DataFlow",
                      "name": "dataFlow",
                      "type": "uint8"
                    },
                    {
                      "internalType": "uint256",
                      "name": "value",
                      "type": "uint256"
                    },
                    {
                      "internalType": "bool",
                      "name": "termsOkCheck",
                      "type": "bool"
                    }
                  ],
                  "internalType": "struct Action[]",
                  "name": "actions",
                  "type": "tuple[]"
                },
                {
                  "internalType": "uint256",
                  "name": "selfProviderGasLimit",
                  "type": "uint256"
                },
                {
                  "internalType": "uint256",
                  "name": "selfProviderGasPriceCeil",
                  "type": "uint256"
                }
              ],
              "internalType": "struct Task[]",
              "name": "tasks",
              "type": "tuple[]"
            },
            {
              "internalType": "uint256",
              "name": "expiryDate",
              "type": "uint256"
            },
            {
              "internalType": "uint256",
              "name": "cycleId",
              "type": "uint256"
            },
            {
              "internalType": "uint256",
              "name": "submissionsLeft",
              "type": "uint256"
            }
          ],
          "internalType": "struct TaskReceipt",
          "name": "_TR",
          "type": "tuple"
        },
        {
          "internalType": "uint256",
          "name": "_gasLimit",
          "type": "uint256"
        },
        {
          "internalType": "uint256",
          "name": "_gelatoGasPrice",
          "type": "uint256"
        }
      ],
      "name": "canExec",
      "outputs": [
        {
          "internalType": "string",
          "name": "",
          "type": "string"
        }
      ],
      "stateMutability": "view",
      "type": "function"
    },
    {
      "inputs": [
        {
          "internalType": "address",
          "name": "_userProxy",
          "type": "address"
        },
        {
          "components": [
            {
              "internalType": "address",
              "name": "addr",
              "type": "address"
            },
            {
              "internalType": "contract IGelatoProviderModule",
              "name": "module",
              "type": "address"
            }
          ],
          "internalType": "struct Provider",
          "name": "_provider",
          "type": "tuple"
        },
        {
          "components": [
            {
              "components": [
                {
                  "internalType": "contract IGelatoCondition",
                  "name": "inst",
                  "type": "address"
                },
                {
                  "internalType": "bytes",
                  "name": "data",
                  "type": "bytes"
                }
              ],
              "internalType": "struct Condition[]",
              "name": "conditions",
              "type": "tuple[]"
            },
            {
              "components": [
                {
                  "internalType": "address",
                  "name": "addr",
                  "type": "address"
                },
                {
                  "internalType": "bytes",
                  "name": "data",
                  "type": "bytes"
                },
                {
                  "internalType": "enum Operation",
                  "name": "operation",
                  "type": "uint8"
                },
                {
                  "internalType": "enum DataFlow",
                  "name": "dataFlow",
                  "type": "uint8"
                },
                {
                  "internalType": "uint256",
                  "name": "value",
                  "type": "uint256"
                },
                {
                  "internalType": "bool",
                  "name": "termsOkCheck",
                  "type": "bool"
                }
              ],
              "internalType": "struct Action[]",
              "name": "actions",
              "type": "tuple[]"
            },
            {
              "internalType": "uint256",
              "name": "selfProviderGasLimit",
              "type": "uint256"
            },
            {
              "internalType": "uint256",
              "name": "selfProviderGasPriceCeil",
              "type": "uint256"
            }
          ],
          "internalType": "struct Task",
          "name": "_task",
          "type": "tuple"
        },
        {
          "internalType": "uint256",
          "name": "_expiryDate",
          "type": "uint256"
        }
      ],
      "name": "canSubmitTask",
      "outputs": [
        {
          "internalType": "string",
          "name": "",
          "type": "string"
        }
      ],
      "stateMutability": "view",
      "type": "function"
    },
    {
      "inputs": [
        {
          "components": [
            {
              "internalType": "uint256",
              "name": "id",
              "type": "uint256"
            },
            {
              "internalType": "address",
              "name": "userProxy",
              "type": "address"
            },
            {
              "components": [
                {
                  "internalType": "address",
                  "name": "addr",
                  "type": "address"
                },
                {
                  "internalType": "contract IGelatoProviderModule",
                  "name": "module",
                  "type": "address"
                }
              ],
              "internalType": "struct Provider",
              "name": "provider",
              "type": "tuple"
            },
            {
              "internalType": "uint256",
              "name": "index",
              "type": "uint256"
            },
            {
              "components": [
                {
                  "components": [
                    {
                      "internalType": "contract IGelatoCondition",
                      "name": "inst",
                      "type": "address"
                    },
                    {
                      "internalType": "bytes",
                      "name": "data",
                      "type": "bytes"
                    }
                  ],
                  "internalType": "struct Condition[]",
                  "name": "conditions",
                  "type": "tuple[]"
                },
                {
                  "components": [
                    {
                      "internalType": "address",
                      "name": "addr",
                      "type": "address"
                    },
                    {
                      "internalType": "bytes",
                      "name": "data",
                      "type": "bytes"
                    },
                    {
                      "internalType": "enum Operation",
                      "name": "operation",
                      "type": "uint8"
                    },
                    {
                      "internalType": "enum DataFlow",
                      "name": "dataFlow",
                      "type": "uint8"
                    },
                    {
                      "internalType": "uint256",
                      "name": "value",
                      "type": "uint256"
                    },
                    {
                      "internalType": "bool",
                      "name": "termsOkCheck",
                      "type": "bool"
                    }
                  ],
                  "internalType": "struct Action[]",
                  "name": "actions",
                  "type": "tuple[]"
                },
                {
                  "internalType": "uint256",
                  "name": "selfProviderGasLimit",
                  "type": "uint256"
                },
                {
                  "internalType": "uint256",
                  "name": "selfProviderGasPriceCeil",
                  "type": "uint256"
                }
              ],
              "internalType": "struct Task[]",
              "name": "tasks",
              "type": "tuple[]"
            },
            {
              "internalType": "uint256",
              "name": "expiryDate",
              "type": "uint256"
            },
            {
              "internalType": "uint256",
              "name": "cycleId",
              "type": "uint256"
            },
            {
              "internalType": "uint256",
              "name": "submissionsLeft",
              "type": "uint256"
            }
          ],
          "internalType": "struct TaskReceipt",
          "name": "_TR",
          "type": "tuple"
        }
      ],
      "name": "cancelTask",
      "outputs": [],
      "stateMutability": "nonpayable",
      "type": "function"
    },
    {
      "inputs": [],
      "name": "currentTaskReceiptId",
      "outputs": [
        {
          "internalType": "uint256",
          "name": "",
          "type": "uint256"
        }
      ],
      "stateMutability": "view",
      "type": "function"
    },
    {
      "inputs": [
        {
          "components": [
            {
              "internalType": "uint256",
              "name": "id",
              "type": "uint256"
            },
            {
              "internalType": "address",
              "name": "userProxy",
              "type": "address"
            },
            {
              "components": [
                {
                  "internalType": "address",
                  "name": "addr",
                  "type": "address"
                },
                {
                  "internalType": "contract IGelatoProviderModule",
                  "name": "module",
                  "type": "address"
                }
              ],
              "internalType": "struct Provider",
              "name": "provider",
              "type": "tuple"
            },
            {
              "internalType": "uint256",
              "name": "index",
              "type": "uint256"
            },
            {
              "components": [
                {
                  "components": [
                    {
                      "internalType": "contract IGelatoCondition",
                      "name": "inst",
                      "type": "address"
                    },
                    {
                      "internalType": "bytes",
                      "name": "data",
                      "type": "bytes"
                    }
                  ],
                  "internalType": "struct Condition[]",
                  "name": "conditions",
                  "type": "tuple[]"
                },
                {
                  "components": [
                    {
                      "internalType": "address",
                      "name": "addr",
                      "type": "address"
                    },
                    {
                      "internalType": "bytes",
                      "name": "data",
                      "type": "bytes"
                    },
                    {
                      "internalType": "enum Operation",
                      "name": "operation",
                      "type": "uint8"
                    },
                    {
                      "internalType": "enum DataFlow",
                      "name": "dataFlow",
                      "type": "uint8"
                    },
                    {
                      "internalType": "uint256",
                      "name": "value",
                      "type": "uint256"
                    },
                    {
                      "internalType": "bool",
                      "name": "termsOkCheck",
                      "type": "bool"
                    }
                  ],
                  "internalType": "struct Action[]",
                  "name": "actions",
                  "type": "tuple[]"
                },
                {
                  "internalType": "uint256",
                  "name": "selfProviderGasLimit",
                  "type": "uint256"
                },
                {
                  "internalType": "uint256",
                  "name": "selfProviderGasPriceCeil",
                  "type": "uint256"
                }
              ],
              "internalType": "struct Task[]",
              "name": "tasks",
              "type": "tuple[]"
            },
            {
              "internalType": "uint256",
              "name": "expiryDate",
              "type": "uint256"
            },
            {
              "internalType": "uint256",
              "name": "cycleId",
              "type": "uint256"
            },
            {
              "internalType": "uint256",
              "name": "submissionsLeft",
              "type": "uint256"
            }
          ],
          "internalType": "struct TaskReceipt",
          "name": "_TR",
          "type": "tuple"
        }
      ],
      "name": "exec",
      "outputs": [],
      "stateMutability": "nonpayable",
      "type": "function"
    },
    {
      "inputs": [
        {
          "components": [
            {
              "internalType": "uint256",
              "name": "id",
              "type": "uint256"
            },
            {
              "internalType": "address",
              "name": "userProxy",
              "type": "address"
            },
            {
              "components": [
                {
                  "internalType": "address",
                  "name": "addr",
                  "type": "address"
                },
                {
                  "internalType": "contract IGelatoProviderModule",
                  "name": "module",
                  "type": "address"
                }
              ],
              "internalType": "struct Provider",
              "name": "provider",
              "type": "tuple"
            },
            {
              "internalType": "uint256",
              "name": "index",
              "type": "uint256"
            },
            {
              "components": [
                {
                  "components": [
                    {
                      "internalType": "contract IGelatoCondition",
                      "name": "inst",
                      "type": "address"
                    },
                    {
                      "internalType": "bytes",
                      "name": "data",
                      "type": "bytes"
                    }
                  ],
                  "internalType": "struct Condition[]",
                  "name": "conditions",
                  "type": "tuple[]"
                },
                {
                  "components": [
                    {
                      "internalType": "address",
                      "name": "addr",
                      "type": "address"
                    },
                    {
                      "internalType": "bytes",
                      "name": "data",
                      "type": "bytes"
                    },
                    {
                      "internalType": "enum Operation",
                      "name": "operation",
                      "type": "uint8"
                    },
                    {
                      "internalType": "enum DataFlow",
                      "name": "dataFlow",
                      "type": "uint8"
                    },
                    {
                      "internalType": "uint256",
                      "name": "value",
                      "type": "uint256"
                    },
                    {
                      "internalType": "bool",
                      "name": "termsOkCheck",
                      "type": "bool"
                    }
                  ],
                  "internalType": "struct Action[]",
                  "name": "actions",
                  "type": "tuple[]"
                },
                {
                  "internalType": "uint256",
                  "name": "selfProviderGasLimit",
                  "type": "uint256"
                },
                {
                  "internalType": "uint256",
                  "name": "selfProviderGasPriceCeil",
                  "type": "uint256"
                }
              ],
              "internalType": "struct Task[]",
              "name": "tasks",
              "type": "tuple[]"
            },
            {
              "internalType": "uint256",
              "name": "expiryDate",
              "type": "uint256"
            },
            {
              "internalType": "uint256",
              "name": "cycleId",
              "type": "uint256"
            },
            {
              "internalType": "uint256",
              "name": "submissionsLeft",
              "type": "uint256"
            }
          ],
          "internalType": "struct TaskReceipt",
          "name": "taskReceipt",
          "type": "tuple"
        },
        {
          "internalType": "uint256",
          "name": "_gasLimit",
          "type": "uint256"
        },
        {
          "internalType": "uint256",
          "name": "_gelatoGasPrice",
          "type": "uint256"
        }
      ],
      "name": "executionWrapper",
      "outputs": [
        {
          "internalType": "enum GelatoCore.ExecutionResult",
          "name": "",
          "type": "uint8"
        },
        {
          "internalType": "string",
          "name": "",
          "type": "string"
        }
      ],
      "stateMutability": "nonpayable",
      "type": "function"
    },
    {
      "inputs": [
        {
          "internalType": "address",
          "name": "_provider",
          "type": "address"
        },
        {
          "internalType": "address",
          "name": "_newExecutor",
          "type": "address"
        }
      ],
      "name": "executorAssignsExecutor",
      "outputs": [],
      "stateMutability": "nonpayable",
      "type": "function"
    },
    {
      "inputs": [
        {
          "internalType": "address",
          "name": "",
          "type": "address"
        }
      ],
      "name": "executorByProvider",
      "outputs": [
        {
          "internalType": "address",
          "name": "",
          "type": "address"
        }
      ],
      "stateMutability": "view",
      "type": "function"
    },
    {
      "inputs": [
        {
          "internalType": "address",
          "name": "",
          "type": "address"
        }
      ],
      "name": "executorProvidersCount",
      "outputs": [
        {
          "internalType": "uint256",
          "name": "",
          "type": "uint256"
        }
      ],
      "stateMutability": "view",
      "type": "function"
    },
    {
      "inputs": [
        {
          "internalType": "address",
          "name": "",
          "type": "address"
        }
      ],
      "name": "executorStake",
      "outputs": [
        {
          "internalType": "uint256",
          "name": "",
          "type": "uint256"
        }
      ],
      "stateMutability": "view",
      "type": "function"
    },
    {
      "inputs": [
        {
          "internalType": "uint256",
          "name": "_gas",
          "type": "uint256"
        },
        {
          "internalType": "uint256",
          "name": "_gasPrice",
          "type": "uint256"
        }
      ],
      "name": "executorSuccessFee",
      "outputs": [
        {
          "internalType": "uint256",
          "name": "",
          "type": "uint256"
        }
      ],
      "stateMutability": "view",
      "type": "function"
    },
    {
      "inputs": [],
      "name": "executorSuccessShare",
      "outputs": [
        {
          "internalType": "uint256",
          "name": "",
          "type": "uint256"
        }
      ],
      "stateMutability": "view",
      "type": "function"
    },
    {
      "inputs": [],
      "name": "gelatoGasPriceOracle",
      "outputs": [
        {
          "internalType": "address",
          "name": "",
          "type": "address"
        }
      ],
      "stateMutability": "view",
      "type": "function"
    },
    {
      "inputs": [],
      "name": "gelatoMaxGas",
      "outputs": [
        {
          "internalType": "uint256",
          "name": "",
          "type": "uint256"
        }
      ],
      "stateMutability": "view",
      "type": "function"
    },
    {
      "inputs": [
        {
          "components": [
            {
              "internalType": "uint256",
              "name": "id",
              "type": "uint256"
            },
            {
              "internalType": "address",
              "name": "userProxy",
              "type": "address"
            },
            {
              "components": [
                {
                  "internalType": "address",
                  "name": "addr",
                  "type": "address"
                },
                {
                  "internalType": "contract IGelatoProviderModule",
                  "name": "module",
                  "type": "address"
                }
              ],
              "internalType": "struct Provider",
              "name": "provider",
              "type": "tuple"
            },
            {
              "internalType": "uint256",
              "name": "index",
              "type": "uint256"
            },
            {
              "components": [
                {
                  "components": [
                    {
                      "internalType": "contract IGelatoCondition",
                      "name": "inst",
                      "type": "address"
                    },
                    {
                      "internalType": "bytes",
                      "name": "data",
                      "type": "bytes"
                    }
                  ],
                  "internalType": "struct Condition[]",
                  "name": "conditions",
                  "type": "tuple[]"
                },
                {
                  "components": [
                    {
                      "internalType": "address",
                      "name": "addr",
                      "type": "address"
                    },
                    {
                      "internalType": "bytes",
                      "name": "data",
                      "type": "bytes"
                    },
                    {
                      "internalType": "enum Operation",
                      "name": "operation",
                      "type": "uint8"
                    },
                    {
                      "internalType": "enum DataFlow",
                      "name": "dataFlow",
                      "type": "uint8"
                    },
                    {
                      "internalType": "uint256",
                      "name": "value",
                      "type": "uint256"
                    },
                    {
                      "internalType": "bool",
                      "name": "termsOkCheck",
                      "type": "bool"
                    }
                  ],
                  "internalType": "struct Action[]",
                  "name": "actions",
                  "type": "tuple[]"
                },
                {
                  "internalType": "uint256",
                  "name": "selfProviderGasLimit",
                  "type": "uint256"
                },
                {
                  "internalType": "uint256",
                  "name": "selfProviderGasPriceCeil",
                  "type": "uint256"
                }
              ],
              "internalType": "struct Task[]",
              "name": "tasks",
              "type": "tuple[]"
            },
            {
              "internalType": "uint256",
              "name": "expiryDate",
              "type": "uint256"
            },
            {
              "internalType": "uint256",
              "name": "cycleId",
              "type": "uint256"
            },
            {
              "internalType": "uint256",
              "name": "submissionsLeft",
              "type": "uint256"
            }
          ],
          "internalType": "struct TaskReceipt",
          "name": "_TR",
          "type": "tuple"
        }
      ],
      "name": "hashTaskReceipt",
      "outputs": [
        {
          "internalType": "bytes32",
          "name": "",
          "type": "bytes32"
        }
      ],
      "stateMutability": "pure",
      "type": "function"
    },
    {
      "inputs": [
        {
          "components": [
            {
              "internalType": "contract IGelatoCondition[]",
              "name": "conditions",
              "type": "address[]"
            },
            {
              "components": [
                {
                  "internalType": "address",
                  "name": "addr",
                  "type": "address"
                },
                {
                  "internalType": "bytes",
                  "name": "data",
                  "type": "bytes"
                },
                {
                  "internalType": "enum Operation",
                  "name": "operation",
                  "type": "uint8"
                },
                {
                  "internalType": "enum DataFlow",
                  "name": "dataFlow",
                  "type": "uint8"
                },
                {
                  "internalType": "uint256",
                  "name": "value",
                  "type": "uint256"
                },
                {
                  "internalType": "bool",
                  "name": "termsOkCheck",
                  "type": "bool"
                }
              ],
              "internalType": "struct Action[]",
              "name": "actions",
              "type": "tuple[]"
            },
            {
              "internalType": "uint256",
              "name": "gasPriceCeil",
              "type": "uint256"
            }
          ],
          "internalType": "struct TaskSpec",
          "name": "_taskSpec",
          "type": "tuple"
        }
      ],
      "name": "hashTaskSpec",
      "outputs": [
        {
          "internalType": "bytes32",
          "name": "",
          "type": "bytes32"
        }
      ],
      "stateMutability": "view",
      "type": "function"
    },
    {
      "inputs": [],
      "name": "internalGasRequirement",
      "outputs": [
        {
          "internalType": "uint256",
          "name": "",
          "type": "uint256"
        }
      ],
      "stateMutability": "view",
      "type": "function"
    },
    {
      "inputs": [
        {
          "internalType": "address",
          "name": "_executor",
          "type": "address"
        }
      ],
      "name": "isExecutorAssigned",
      "outputs": [
        {
          "internalType": "bool",
          "name": "",
          "type": "bool"
        }
      ],
      "stateMutability": "view",
      "type": "function"
    },
    {
      "inputs": [
        {
          "internalType": "address",
          "name": "_executor",
          "type": "address"
        }
      ],
      "name": "isExecutorMinStaked",
      "outputs": [
        {
          "internalType": "bool",
          "name": "",
          "type": "bool"
        }
      ],
      "stateMutability": "view",
      "type": "function"
    },
    {
      "inputs": [
        {
          "internalType": "address",
          "name": "_provider",
          "type": "address"
        },
        {
          "internalType": "contract IGelatoProviderModule",
          "name": "_module",
          "type": "address"
        }
      ],
      "name": "isModuleProvided",
      "outputs": [
        {
          "internalType": "bool",
          "name": "",
          "type": "bool"
        }
      ],
      "stateMutability": "view",
      "type": "function"
    },
    {
      "inputs": [],
      "name": "isOwner",
      "outputs": [
        {
          "internalType": "bool",
          "name": "",
          "type": "bool"
        }
      ],
      "stateMutability": "view",
      "type": "function"
    },
    {
      "inputs": [
        {
          "internalType": "address",
          "name": "_provider",
          "type": "address"
        },
        {
          "internalType": "uint256",
          "name": "_gelatoMaxGas",
          "type": "uint256"
        },
        {
          "internalType": "uint256",
          "name": "_gelatoGasPrice",
          "type": "uint256"
        }
      ],
      "name": "isProviderLiquid",
      "outputs": [
        {
          "internalType": "bool",
          "name": "",
          "type": "bool"
        }
      ],
      "stateMutability": "view",
      "type": "function"
    },
    {
      "inputs": [
        {
          "internalType": "address",
          "name": "_userProxy",
          "type": "address"
        },
        {
          "components": [
            {
              "internalType": "address",
              "name": "addr",
              "type": "address"
            },
            {
              "internalType": "contract IGelatoProviderModule",
              "name": "module",
              "type": "address"
            }
          ],
          "internalType": "struct Provider",
          "name": "_provider",
          "type": "tuple"
        },
        {
          "components": [
            {
              "components": [
                {
                  "internalType": "contract IGelatoCondition",
                  "name": "inst",
                  "type": "address"
                },
                {
                  "internalType": "bytes",
                  "name": "data",
                  "type": "bytes"
                }
              ],
              "internalType": "struct Condition[]",
              "name": "conditions",
              "type": "tuple[]"
            },
            {
              "components": [
                {
                  "internalType": "address",
                  "name": "addr",
                  "type": "address"
                },
                {
                  "internalType": "bytes",
                  "name": "data",
                  "type": "bytes"
                },
                {
                  "internalType": "enum Operation",
                  "name": "operation",
                  "type": "uint8"
                },
                {
                  "internalType": "enum DataFlow",
                  "name": "dataFlow",
                  "type": "uint8"
                },
                {
                  "internalType": "uint256",
                  "name": "value",
                  "type": "uint256"
                },
                {
                  "internalType": "bool",
                  "name": "termsOkCheck",
                  "type": "bool"
                }
              ],
              "internalType": "struct Action[]",
              "name": "actions",
              "type": "tuple[]"
            },
            {
              "internalType": "uint256",
              "name": "selfProviderGasLimit",
              "type": "uint256"
            },
            {
              "internalType": "uint256",
              "name": "selfProviderGasPriceCeil",
              "type": "uint256"
            }
          ],
          "internalType": "struct Task",
          "name": "_task",
          "type": "tuple"
        }
      ],
      "name": "isTaskProvided",
      "outputs": [
        {
          "internalType": "string",
          "name": "res",
          "type": "string"
        }
      ],
      "stateMutability": "view",
      "type": "function"
    },
    {
      "inputs": [
        {
          "internalType": "address",
          "name": "_provider",
          "type": "address"
        },
        {
          "components": [
            {
              "internalType": "contract IGelatoCondition[]",
              "name": "conditions",
              "type": "address[]"
            },
            {
              "components": [
                {
                  "internalType": "address",
                  "name": "addr",
                  "type": "address"
                },
                {
                  "internalType": "bytes",
                  "name": "data",
                  "type": "bytes"
                },
                {
                  "internalType": "enum Operation",
                  "name": "operation",
                  "type": "uint8"
                },
                {
                  "internalType": "enum DataFlow",
                  "name": "dataFlow",
                  "type": "uint8"
                },
                {
                  "internalType": "uint256",
                  "name": "value",
                  "type": "uint256"
                },
                {
                  "internalType": "bool",
                  "name": "termsOkCheck",
                  "type": "bool"
                }
              ],
              "internalType": "struct Action[]",
              "name": "actions",
              "type": "tuple[]"
            },
            {
              "internalType": "uint256",
              "name": "gasPriceCeil",
              "type": "uint256"
            }
          ],
          "internalType": "struct TaskSpec",
          "name": "_taskSpec",
          "type": "tuple"
        }
      ],
      "name": "isTaskSpecProvided",
      "outputs": [
        {
          "internalType": "string",
          "name": "",
          "type": "string"
        }
      ],
      "stateMutability": "view",
      "type": "function"
    },
    {
      "inputs": [
        {
          "internalType": "uint256",
          "name": "_gelatoMaxGas",
          "type": "uint256"
        },
        {
          "internalType": "uint256",
          "name": "_gelatoGasPrice",
          "type": "uint256"
        }
      ],
      "name": "minExecProviderFunds",
      "outputs": [
        {
          "internalType": "uint256",
          "name": "",
          "type": "uint256"
        }
      ],
      "stateMutability": "view",
      "type": "function"
    },
    {
      "inputs": [],
      "name": "minExecutorStake",
      "outputs": [
        {
          "internalType": "uint256",
          "name": "",
          "type": "uint256"
        }
      ],
      "stateMutability": "view",
      "type": "function"
    },
    {
      "inputs": [
        {
          "components": [
            {
              "internalType": "uint256",
              "name": "id",
              "type": "uint256"
            },
            {
              "internalType": "address",
              "name": "userProxy",
              "type": "address"
            },
            {
              "components": [
                {
                  "internalType": "address",
                  "name": "addr",
                  "type": "address"
                },
                {
                  "internalType": "contract IGelatoProviderModule",
                  "name": "module",
                  "type": "address"
                }
              ],
              "internalType": "struct Provider",
              "name": "provider",
              "type": "tuple"
            },
            {
              "internalType": "uint256",
              "name": "index",
              "type": "uint256"
            },
            {
              "components": [
                {
                  "components": [
                    {
                      "internalType": "contract IGelatoCondition",
                      "name": "inst",
                      "type": "address"
                    },
                    {
                      "internalType": "bytes",
                      "name": "data",
                      "type": "bytes"
                    }
                  ],
                  "internalType": "struct Condition[]",
                  "name": "conditions",
                  "type": "tuple[]"
                },
                {
                  "components": [
                    {
                      "internalType": "address",
                      "name": "addr",
                      "type": "address"
                    },
                    {
                      "internalType": "bytes",
                      "name": "data",
                      "type": "bytes"
                    },
                    {
                      "internalType": "enum Operation",
                      "name": "operation",
                      "type": "uint8"
                    },
                    {
                      "internalType": "enum DataFlow",
                      "name": "dataFlow",
                      "type": "uint8"
                    },
                    {
                      "internalType": "uint256",
                      "name": "value",
                      "type": "uint256"
                    },
                    {
                      "internalType": "bool",
                      "name": "termsOkCheck",
                      "type": "bool"
                    }
                  ],
                  "internalType": "struct Action[]",
                  "name": "actions",
                  "type": "tuple[]"
                },
                {
                  "internalType": "uint256",
                  "name": "selfProviderGasLimit",
                  "type": "uint256"
                },
                {
                  "internalType": "uint256",
                  "name": "selfProviderGasPriceCeil",
                  "type": "uint256"
                }
              ],
              "internalType": "struct Task[]",
              "name": "tasks",
              "type": "tuple[]"
            },
            {
              "internalType": "uint256",
              "name": "expiryDate",
              "type": "uint256"
            },
            {
              "internalType": "uint256",
              "name": "cycleId",
              "type": "uint256"
            },
            {
              "internalType": "uint256",
              "name": "submissionsLeft",
              "type": "uint256"
            }
          ],
          "internalType": "struct TaskReceipt[]",
          "name": "_taskReceipts",
          "type": "tuple[]"
        }
      ],
      "name": "multiCancelTasks",
      "outputs": [],
      "stateMutability": "nonpayable",
      "type": "function"
    },
    {
      "inputs": [
        {
          "internalType": "address",
          "name": "_executor",
          "type": "address"
        },
        {
          "components": [
            {
              "internalType": "contract IGelatoCondition[]",
              "name": "conditions",
              "type": "address[]"
            },
            {
              "components": [
                {
                  "internalType": "address",
                  "name": "addr",
                  "type": "address"
                },
                {
                  "internalType": "bytes",
                  "name": "data",
                  "type": "bytes"
                },
                {
                  "internalType": "enum Operation",
                  "name": "operation",
                  "type": "uint8"
                },
                {
                  "internalType": "enum DataFlow",
                  "name": "dataFlow",
                  "type": "uint8"
                },
                {
                  "internalType": "uint256",
                  "name": "value",
                  "type": "uint256"
                },
                {
                  "internalType": "bool",
                  "name": "termsOkCheck",
                  "type": "bool"
                }
              ],
              "internalType": "struct Action[]",
              "name": "actions",
              "type": "tuple[]"
            },
            {
              "internalType": "uint256",
              "name": "gasPriceCeil",
              "type": "uint256"
            }
          ],
          "internalType": "struct TaskSpec[]",
          "name": "_taskSpecs",
          "type": "tuple[]"
        },
        {
          "internalType": "contract IGelatoProviderModule[]",
          "name": "_modules",
          "type": "address[]"
        }
      ],
      "name": "multiProvide",
      "outputs": [],
      "stateMutability": "payable",
      "type": "function"
    },
    {
      "inputs": [
        {
          "internalType": "address[]",
          "name": "_providers",
          "type": "address[]"
        },
        {
          "internalType": "address",
          "name": "_newExecutor",
          "type": "address"
        }
      ],
      "name": "multiReassignProviders",
      "outputs": [],
      "stateMutability": "nonpayable",
      "type": "function"
    },
    {
      "inputs": [
        {
          "internalType": "uint256",
          "name": "_withdrawAmount",
          "type": "uint256"
        },
        {
          "components": [
            {
              "internalType": "contract IGelatoCondition[]",
              "name": "conditions",
              "type": "address[]"
            },
            {
              "components": [
                {
                  "internalType": "address",
                  "name": "addr",
                  "type": "address"
                },
                {
                  "internalType": "bytes",
                  "name": "data",
                  "type": "bytes"
                },
                {
                  "internalType": "enum Operation",
                  "name": "operation",
                  "type": "uint8"
                },
                {
                  "internalType": "enum DataFlow",
                  "name": "dataFlow",
                  "type": "uint8"
                },
                {
                  "internalType": "uint256",
                  "name": "value",
                  "type": "uint256"
                },
                {
                  "internalType": "bool",
                  "name": "termsOkCheck",
                  "type": "bool"
                }
              ],
              "internalType": "struct Action[]",
              "name": "actions",
              "type": "tuple[]"
            },
            {
              "internalType": "uint256",
              "name": "gasPriceCeil",
              "type": "uint256"
            }
          ],
          "internalType": "struct TaskSpec[]",
          "name": "_taskSpecs",
          "type": "tuple[]"
        },
        {
          "internalType": "contract IGelatoProviderModule[]",
          "name": "_modules",
          "type": "address[]"
        }
      ],
      "name": "multiUnprovide",
      "outputs": [],
      "stateMutability": "nonpayable",
      "type": "function"
    },
    {
      "inputs": [],
      "name": "oracleRequestData",
      "outputs": [
        {
          "internalType": "bytes",
          "name": "",
          "type": "bytes"
        }
      ],
      "stateMutability": "view",
      "type": "function"
    },
    {
      "inputs": [],
      "name": "owner",
      "outputs": [
        {
          "internalType": "address",
          "name": "",
          "type": "address"
        }
      ],
      "stateMutability": "view",
      "type": "function"
    },
    {
      "inputs": [
        {
          "internalType": "address",
          "name": "_provider",
          "type": "address"
        }
      ],
      "name": "provideFunds",
      "outputs": [],
      "stateMutability": "payable",
      "type": "function"
    },
    {
      "inputs": [
        {
          "components": [
            {
              "internalType": "contract IGelatoCondition[]",
              "name": "conditions",
              "type": "address[]"
            },
            {
              "components": [
                {
                  "internalType": "address",
                  "name": "addr",
                  "type": "address"
                },
                {
                  "internalType": "bytes",
                  "name": "data",
                  "type": "bytes"
                },
                {
                  "internalType": "enum Operation",
                  "name": "operation",
                  "type": "uint8"
                },
                {
                  "internalType": "enum DataFlow",
                  "name": "dataFlow",
                  "type": "uint8"
                },
                {
                  "internalType": "uint256",
                  "name": "value",
                  "type": "uint256"
                },
                {
                  "internalType": "bool",
                  "name": "termsOkCheck",
                  "type": "bool"
                }
              ],
              "internalType": "struct Action[]",
              "name": "actions",
              "type": "tuple[]"
            },
            {
              "internalType": "uint256",
              "name": "gasPriceCeil",
              "type": "uint256"
            }
          ],
          "internalType": "struct TaskSpec[]",
          "name": "_taskSpecs",
          "type": "tuple[]"
        }
      ],
      "name": "provideTaskSpecs",
      "outputs": [],
      "stateMutability": "nonpayable",
      "type": "function"
    },
    {
      "inputs": [
        {
          "internalType": "address",
          "name": "_newExecutor",
          "type": "address"
        }
      ],
      "name": "providerAssignsExecutor",
      "outputs": [],
      "stateMutability": "nonpayable",
      "type": "function"
    },
    {
      "inputs": [
        {
          "internalType": "address",
          "name": "_userProxy",
          "type": "address"
        },
        {
          "components": [
            {
              "internalType": "address",
              "name": "addr",
              "type": "address"
            },
            {
              "internalType": "contract IGelatoProviderModule",
              "name": "module",
              "type": "address"
            }
          ],
          "internalType": "struct Provider",
          "name": "_provider",
          "type": "tuple"
        },
        {
          "components": [
            {
              "components": [
                {
                  "internalType": "contract IGelatoCondition",
                  "name": "inst",
                  "type": "address"
                },
                {
                  "internalType": "bytes",
                  "name": "data",
                  "type": "bytes"
                }
              ],
              "internalType": "struct Condition[]",
              "name": "conditions",
              "type": "tuple[]"
            },
            {
              "components": [
                {
                  "internalType": "address",
                  "name": "addr",
                  "type": "address"
                },
                {
                  "internalType": "bytes",
                  "name": "data",
                  "type": "bytes"
                },
                {
                  "internalType": "enum Operation",
                  "name": "operation",
                  "type": "uint8"
                },
                {
                  "internalType": "enum DataFlow",
                  "name": "dataFlow",
                  "type": "uint8"
                },
                {
                  "internalType": "uint256",
                  "name": "value",
                  "type": "uint256"
                },
                {
                  "internalType": "bool",
                  "name": "termsOkCheck",
                  "type": "bool"
                }
              ],
              "internalType": "struct Action[]",
              "name": "actions",
              "type": "tuple[]"
            },
            {
              "internalType": "uint256",
              "name": "selfProviderGasLimit",
              "type": "uint256"
            },
            {
              "internalType": "uint256",
              "name": "selfProviderGasPriceCeil",
              "type": "uint256"
            }
          ],
          "internalType": "struct Task",
          "name": "_task",
          "type": "tuple"
        },
        {
          "internalType": "uint256",
          "name": "_gelatoGasPrice",
          "type": "uint256"
        }
      ],
      "name": "providerCanExec",
      "outputs": [
        {
          "internalType": "string",
          "name": "",
          "type": "string"
        }
      ],
      "stateMutability": "view",
      "type": "function"
    },
    {
      "inputs": [
        {
          "internalType": "address",
          "name": "",
          "type": "address"
        }
      ],
      "name": "providerFunds",
      "outputs": [
        {
          "internalType": "uint256",
          "name": "",
          "type": "uint256"
        }
      ],
      "stateMutability": "view",
      "type": "function"
    },
    {
      "inputs": [
        {
          "internalType": "address",
          "name": "_userProxy",
          "type": "address"
        },
        {
          "components": [
            {
              "internalType": "address",
              "name": "addr",
              "type": "address"
            },
            {
              "internalType": "contract IGelatoProviderModule",
              "name": "module",
              "type": "address"
            }
          ],
          "internalType": "struct Provider",
          "name": "_provider",
          "type": "tuple"
        },
        {
          "components": [
            {
              "components": [
                {
                  "internalType": "contract IGelatoCondition",
                  "name": "inst",
                  "type": "address"
                },
                {
                  "internalType": "bytes",
                  "name": "data",
                  "type": "bytes"
                }
              ],
              "internalType": "struct Condition[]",
              "name": "conditions",
              "type": "tuple[]"
            },
            {
              "components": [
                {
                  "internalType": "address",
                  "name": "addr",
                  "type": "address"
                },
                {
                  "internalType": "bytes",
                  "name": "data",
                  "type": "bytes"
                },
                {
                  "internalType": "enum Operation",
                  "name": "operation",
                  "type": "uint8"
                },
                {
                  "internalType": "enum DataFlow",
                  "name": "dataFlow",
                  "type": "uint8"
                },
                {
                  "internalType": "uint256",
                  "name": "value",
                  "type": "uint256"
                },
                {
                  "internalType": "bool",
                  "name": "termsOkCheck",
                  "type": "bool"
                }
              ],
              "internalType": "struct Action[]",
              "name": "actions",
              "type": "tuple[]"
            },
            {
              "internalType": "uint256",
              "name": "selfProviderGasLimit",
              "type": "uint256"
            },
            {
              "internalType": "uint256",
              "name": "selfProviderGasPriceCeil",
              "type": "uint256"
            }
          ],
          "internalType": "struct Task",
          "name": "_task",
          "type": "tuple"
        }
      ],
      "name": "providerModuleChecks",
      "outputs": [
        {
          "internalType": "string",
          "name": "",
          "type": "string"
        }
      ],
      "stateMutability": "view",
      "type": "function"
    },
    {
      "inputs": [
        {
          "internalType": "address",
          "name": "_provider",
          "type": "address"
        }
      ],
      "name": "providerModules",
      "outputs": [
        {
          "internalType": "contract IGelatoProviderModule[]",
          "name": "",
          "type": "address[]"
        }
      ],
      "stateMutability": "view",
      "type": "function"
    },
    {
      "inputs": [
        {
          "internalType": "contract IGelatoProviderModule[]",
          "name": "_modules",
          "type": "address[]"
        }
      ],
      "name": "removeProviderModules",
      "outputs": [],
      "stateMutability": "nonpayable",
      "type": "function"
    },
    {
      "inputs": [],
      "name": "renounceOwnership",
      "outputs": [],
      "stateMutability": "nonpayable",
      "type": "function"
    },
    {
      "inputs": [
        {
          "internalType": "uint256",
          "name": "_percentage",
          "type": "uint256"
        }
      ],
      "name": "setExecutorSuccessShare",
      "outputs": [],
      "stateMutability": "nonpayable",
      "type": "function"
    },
    {
      "inputs": [
        {
          "internalType": "address",
          "name": "_newOracle",
          "type": "address"
        }
      ],
      "name": "setGelatoGasPriceOracle",
      "outputs": [],
      "stateMutability": "nonpayable",
      "type": "function"
    },
    {
      "inputs": [
        {
          "internalType": "uint256",
          "name": "_newMaxGas",
          "type": "uint256"
        }
      ],
      "name": "setGelatoMaxGas",
      "outputs": [],
      "stateMutability": "nonpayable",
      "type": "function"
    },
    {
      "inputs": [
        {
          "internalType": "uint256",
          "name": "_newRequirement",
          "type": "uint256"
        }
      ],
      "name": "setInternalGasRequirement",
      "outputs": [],
      "stateMutability": "nonpayable",
      "type": "function"
    },
    {
      "inputs": [
        {
          "internalType": "uint256",
          "name": "_newMin",
          "type": "uint256"
        }
      ],
      "name": "setMinExecutorStake",
      "outputs": [],
      "stateMutability": "nonpayable",
      "type": "function"
    },
    {
      "inputs": [
        {
          "internalType": "bytes",
          "name": "_requestData",
          "type": "bytes"
        }
      ],
      "name": "setOracleRequestData",
      "outputs": [],
      "stateMutability": "nonpayable",
      "type": "function"
    },
    {
      "inputs": [
        {
          "internalType": "uint256",
          "name": "_percentage",
          "type": "uint256"
        }
      ],
      "name": "setSysAdminSuccessShare",
      "outputs": [],
      "stateMutability": "nonpayable",
      "type": "function"
    },
    {
      "inputs": [
        {
          "internalType": "bytes32",
          "name": "_taskSpecHash",
          "type": "bytes32"
        },
        {
          "internalType": "uint256",
          "name": "_gasPriceCeil",
          "type": "uint256"
        }
      ],
      "name": "setTaskSpecGasPriceCeil",
      "outputs": [],
      "stateMutability": "nonpayable",
      "type": "function"
    },
    {
      "inputs": [],
      "name": "stakeExecutor",
      "outputs": [],
      "stateMutability": "payable",
      "type": "function"
    },
    {
      "inputs": [
        {
          "components": [
            {
              "internalType": "address",
              "name": "addr",
              "type": "address"
            },
            {
              "internalType": "contract IGelatoProviderModule",
              "name": "module",
              "type": "address"
            }
          ],
          "internalType": "struct Provider",
          "name": "_provider",
          "type": "tuple"
        },
        {
          "components": [
            {
              "components": [
                {
                  "internalType": "contract IGelatoCondition",
                  "name": "inst",
                  "type": "address"
                },
                {
                  "internalType": "bytes",
                  "name": "data",
                  "type": "bytes"
                }
              ],
              "internalType": "struct Condition[]",
              "name": "conditions",
              "type": "tuple[]"
            },
            {
              "components": [
                {
                  "internalType": "address",
                  "name": "addr",
                  "type": "address"
                },
                {
                  "internalType": "bytes",
                  "name": "data",
                  "type": "bytes"
                },
                {
                  "internalType": "enum Operation",
                  "name": "operation",
                  "type": "uint8"
                },
                {
                  "internalType": "enum DataFlow",
                  "name": "dataFlow",
                  "type": "uint8"
                },
                {
                  "internalType": "uint256",
                  "name": "value",
                  "type": "uint256"
                },
                {
                  "internalType": "bool",
                  "name": "termsOkCheck",
                  "type": "bool"
                }
              ],
              "internalType": "struct Action[]",
              "name": "actions",
              "type": "tuple[]"
            },
            {
              "internalType": "uint256",
              "name": "selfProviderGasLimit",
              "type": "uint256"
            },
            {
              "internalType": "uint256",
              "name": "selfProviderGasPriceCeil",
              "type": "uint256"
            }
          ],
          "internalType": "struct Task",
          "name": "_task",
          "type": "tuple"
        },
        {
          "internalType": "uint256",
          "name": "_expiryDate",
          "type": "uint256"
        }
      ],
      "name": "submitTask",
      "outputs": [],
      "stateMutability": "nonpayable",
      "type": "function"
    },
    {
      "inputs": [
        {
          "components": [
            {
              "internalType": "address",
              "name": "addr",
              "type": "address"
            },
            {
              "internalType": "contract IGelatoProviderModule",
              "name": "module",
              "type": "address"
            }
          ],
          "internalType": "struct Provider",
          "name": "_provider",
          "type": "tuple"
        },
        {
          "components": [
            {
              "components": [
                {
                  "internalType": "contract IGelatoCondition",
                  "name": "inst",
                  "type": "address"
                },
                {
                  "internalType": "bytes",
                  "name": "data",
                  "type": "bytes"
                }
              ],
              "internalType": "struct Condition[]",
              "name": "conditions",
              "type": "tuple[]"
            },
            {
              "components": [
                {
                  "internalType": "address",
                  "name": "addr",
                  "type": "address"
                },
                {
                  "internalType": "bytes",
                  "name": "data",
                  "type": "bytes"
                },
                {
                  "internalType": "enum Operation",
                  "name": "operation",
                  "type": "uint8"
                },
                {
                  "internalType": "enum DataFlow",
                  "name": "dataFlow",
                  "type": "uint8"
                },
                {
                  "internalType": "uint256",
                  "name": "value",
                  "type": "uint256"
                },
                {
                  "internalType": "bool",
                  "name": "termsOkCheck",
                  "type": "bool"
                }
              ],
              "internalType": "struct Action[]",
              "name": "actions",
              "type": "tuple[]"
            },
            {
              "internalType": "uint256",
              "name": "selfProviderGasLimit",
              "type": "uint256"
            },
            {
              "internalType": "uint256",
              "name": "selfProviderGasPriceCeil",
              "type": "uint256"
            }
          ],
          "internalType": "struct Task[]",
          "name": "_tasks",
          "type": "tuple[]"
        },
        {
          "internalType": "uint256",
          "name": "_expiryDate",
          "type": "uint256"
        },
        {
          "internalType": "uint256",
          "name": "_sumOfRequestedTaskSubmits",
          "type": "uint256"
        }
      ],
      "name": "submitTaskChain",
      "outputs": [],
      "stateMutability": "nonpayable",
      "type": "function"
    },
    {
      "inputs": [
        {
          "components": [
            {
              "internalType": "address",
              "name": "addr",
              "type": "address"
            },
            {
              "internalType": "contract IGelatoProviderModule",
              "name": "module",
              "type": "address"
            }
          ],
          "internalType": "struct Provider",
          "name": "_provider",
          "type": "tuple"
        },
        {
          "components": [
            {
              "components": [
                {
                  "internalType": "contract IGelatoCondition",
                  "name": "inst",
                  "type": "address"
                },
                {
                  "internalType": "bytes",
                  "name": "data",
                  "type": "bytes"
                }
              ],
              "internalType": "struct Condition[]",
              "name": "conditions",
              "type": "tuple[]"
            },
            {
              "components": [
                {
                  "internalType": "address",
                  "name": "addr",
                  "type": "address"
                },
                {
                  "internalType": "bytes",
                  "name": "data",
                  "type": "bytes"
                },
                {
                  "internalType": "enum Operation",
                  "name": "operation",
                  "type": "uint8"
                },
                {
                  "internalType": "enum DataFlow",
                  "name": "dataFlow",
                  "type": "uint8"
                },
                {
                  "internalType": "uint256",
                  "name": "value",
                  "type": "uint256"
                },
                {
                  "internalType": "bool",
                  "name": "termsOkCheck",
                  "type": "bool"
                }
              ],
              "internalType": "struct Action[]",
              "name": "actions",
              "type": "tuple[]"
            },
            {
              "internalType": "uint256",
              "name": "selfProviderGasLimit",
              "type": "uint256"
            },
            {
              "internalType": "uint256",
              "name": "selfProviderGasPriceCeil",
              "type": "uint256"
            }
          ],
          "internalType": "struct Task[]",
          "name": "_tasks",
          "type": "tuple[]"
        },
        {
          "internalType": "uint256",
          "name": "_expiryDate",
          "type": "uint256"
        },
        {
          "internalType": "uint256",
          "name": "_cycles",
          "type": "uint256"
        }
      ],
      "name": "submitTaskCycle",
      "outputs": [],
      "stateMutability": "nonpayable",
      "type": "function"
    },
    {
      "inputs": [],
      "name": "sysAdminFunds",
      "outputs": [
        {
          "internalType": "uint256",
          "name": "",
          "type": "uint256"
        }
      ],
      "stateMutability": "view",
      "type": "function"
    },
    {
      "inputs": [
        {
          "internalType": "uint256",
          "name": "_gas",
          "type": "uint256"
        },
        {
          "internalType": "uint256",
          "name": "_gasPrice",
          "type": "uint256"
        }
      ],
      "name": "sysAdminSuccessFee",
      "outputs": [
        {
          "internalType": "uint256",
          "name": "",
          "type": "uint256"
        }
      ],
      "stateMutability": "view",
      "type": "function"
    },
    {
      "inputs": [],
      "name": "sysAdminSuccessShare",
      "outputs": [
        {
          "internalType": "uint256",
          "name": "",
          "type": "uint256"
        }
      ],
      "stateMutability": "view",
      "type": "function"
    },
    {
      "inputs": [
        {
          "internalType": "uint256",
          "name": "",
          "type": "uint256"
        }
      ],
      "name": "taskReceiptHash",
      "outputs": [
        {
          "internalType": "bytes32",
          "name": "",
          "type": "bytes32"
        }
      ],
      "stateMutability": "view",
      "type": "function"
    },
    {
      "inputs": [
        {
          "internalType": "address",
          "name": "",
          "type": "address"
        },
        {
          "internalType": "bytes32",
          "name": "",
          "type": "bytes32"
        }
      ],
      "name": "taskSpecGasPriceCeil",
      "outputs": [
        {
          "internalType": "uint256",
          "name": "",
          "type": "uint256"
        }
      ],
      "stateMutability": "view",
      "type": "function"
    },
    {
      "inputs": [],
      "name": "totalSuccessShare",
      "outputs": [
        {
          "internalType": "uint256",
          "name": "",
          "type": "uint256"
        }
      ],
      "stateMutability": "view",
      "type": "function"
    },
    {
      "inputs": [
        {
          "internalType": "address",
          "name": "newOwner",
          "type": "address"
        }
      ],
      "name": "transferOwnership",
      "outputs": [],
      "stateMutability": "nonpayable",
      "type": "function"
    },
    {
      "inputs": [
        {
          "internalType": "uint256",
          "name": "_withdrawAmount",
          "type": "uint256"
        }
      ],
      "name": "unprovideFunds",
      "outputs": [
        {
          "internalType": "uint256",
          "name": "realWithdrawAmount",
          "type": "uint256"
        }
      ],
      "stateMutability": "nonpayable",
      "type": "function"
    },
    {
      "inputs": [
        {
          "components": [
            {
              "internalType": "contract IGelatoCondition[]",
              "name": "conditions",
              "type": "address[]"
            },
            {
              "components": [
                {
                  "internalType": "address",
                  "name": "addr",
                  "type": "address"
                },
                {
                  "internalType": "bytes",
                  "name": "data",
                  "type": "bytes"
                },
                {
                  "internalType": "enum Operation",
                  "name": "operation",
                  "type": "uint8"
                },
                {
                  "internalType": "enum DataFlow",
                  "name": "dataFlow",
                  "type": "uint8"
                },
                {
                  "internalType": "uint256",
                  "name": "value",
                  "type": "uint256"
                },
                {
                  "internalType": "bool",
                  "name": "termsOkCheck",
                  "type": "bool"
                }
              ],
              "internalType": "struct Action[]",
              "name": "actions",
              "type": "tuple[]"
            },
            {
              "internalType": "uint256",
              "name": "gasPriceCeil",
              "type": "uint256"
            }
          ],
          "internalType": "struct TaskSpec[]",
          "name": "_taskSpecs",
          "type": "tuple[]"
        }
      ],
      "name": "unprovideTaskSpecs",
      "outputs": [],
      "stateMutability": "nonpayable",
      "type": "function"
    },
    {
      "inputs": [],
      "name": "unstakeExecutor",
      "outputs": [],
      "stateMutability": "nonpayable",
      "type": "function"
    },
    {
      "inputs": [
        {
          "internalType": "uint256",
          "name": "_withdrawAmount",
          "type": "uint256"
        }
      ],
      "name": "withdrawExcessExecutorStake",
      "outputs": [
        {
          "internalType": "uint256",
          "name": "realWithdrawAmount",
          "type": "uint256"
        }
      ],
      "stateMutability": "nonpayable",
      "type": "function"
    },
    {
      "inputs": [
        {
          "internalType": "uint256",
          "name": "_amount",
          "type": "uint256"
        },
        {
          "internalType": "address payable",
          "name": "_to",
          "type": "address"
        }
      ],
      "name": "withdrawSysAdminFunds",
      "outputs": [
        {
          "internalType": "uint256",
          "name": "realWithdrawAmount",
          "type": "uint256"
        }
      ],
      "stateMutability": "nonpayable",
      "type": "function"
    }
  ],
  "transactionHash": "0xe1525de7b17464c90d5dfaa71098745058c42ef36c1d7854139115a48b5bf1e6",
  "args": [
    {
      "gelatoGasPriceOracle": "0x169e633a2d1e6c10dd91238ba11c4a708dfef37c",
      "oracleRequestData": "0x50d25bcd",
      "gelatoMaxGas": 5000000,
      "internalGasRequirement": 100000,
      "minExecutorStake": 0,
      "executorSuccessShare": 0,
      "sysAdminSuccessShare": 0,
      "totalSuccessShare": 0
    }
  ],
  "solcInputHash": "d9397bda7e9d5c90e2ef9a83ef888759",
  "bytecode": "0x60806040523480156200001157600080fd5b50604051620062b0380380620062b083398101604081905262000034916200023e565b600080546001600160a01b03191633178082556040516001600160a01b039190911691907f8be0079c531659141344cd1fd0a4f28419497f9722a3daafe3b4186f6b6457e0908290a38051600180546001600160a01b0319166001600160a01b039092169190911790556020808201518051620000b6926002920190620000ec565b5060408101516003556060810151600455608081015160055560a081015160065560c081015160075560e001516008556200032c565b828054600181600116156101000203166002900490600052602060002090601f016020900481019282601f106200012f57805160ff19168380011785556200015f565b828001600101855582156200015f579182015b828111156200015f57825182559160200191906001019062000142565b506200016d92915062000171565b5090565b6200018e91905b808211156200016d576000815560010162000178565b90565b80516001600160a01b0381168114620001a957600080fd5b92915050565b600082601f830112620001c0578081fd5b81516001600160401b03811115620001d6578182fd5b6020620001ec601f8301601f1916820162000305565b925081835284818386010111156200020357600080fd5b60005b828110156200022357848101820151848201830152810162000206565b82811115620002355760008284860101525b50505092915050565b60006020828403121562000250578081fd5b81516001600160401b038082111562000267578283fd5b6101009184018086038313156200027c578384fd5b620002878362000305565b62000293878362000191565b81526020820151935082841115620002a9578485fd5b620002b787858401620001af565b602082015260408201516040820152606082015160608201526080820151608082015260a082015160a082015260c082015160c082015260e082015160e08201528094505050505092915050565b6040518181016001600160401b03811182821017156200032457600080fd5b604052919050565b615f74806200033c6000396000f3fe6080604052600436106103ef5760003560e01c80639075180f11610208578063bf2a458a11610118578063d58b172c116100ab578063e9d1a8a91161007a578063e9d1a8a914610b4c578063f2fde38b14610b6c578063f323609914610b8c578063f8559c0814610bac578063ff92b1a814610bcc576103ef565b8063d58b172c14610acc578063d922de9914610aec578063e138d05014610b0c578063e61235b714610b2c576103ef565b8063ca1efcdb116100e7578063ca1efcdb14610a4c578063cf37b49514610a6c578063d378597414610a8c578063d3ab1f7a14610aac576103ef565b8063bf2a458a146109bf578063c234feb6146109ec578063c6638a8b14610a0c578063ca05abe114610a2c576103ef565b8063a4ceb6a31161019b578063b348e2681161016a578063b348e2681461092a578063bac3bf131461094a578063bb07c5031461096a578063bedf04a71461097f578063beecd4931461099f576103ef565b8063a4ceb6a3146108d8578063a4fffd2c146108ed578063b300f75214610902578063b30f457214610922576103ef565b80639a53cb79116101d75780639a53cb79146108705780639aad3798146108905780639d703cdf146108a3578063a4c12256146108b8576103ef565b80639075180f146107fb578063949d87901461081057806394caca6f1461083057806399b2261714610850576103ef565b8063613f2b7d1161030357806385f75f70116102965780638e2e925f116102655780638e2e925f146107875780638e68595d1461079c5780638f01bf77146107bc5780638f32d59b146107d1578063905bc3e3146107e6576103ef565b806385f75f7014610705578063888a4a7a1461072557806388a5e330146107455780638da5cb5b14610765576103ef565b8063715018a6116102d2578063715018a61461069057806372d55083146106a55780637c3ceda4146106c55780637f9fe1a2146106e5576103ef565b8063613f2b7d146106105780636264f6981461063057806363905be8146106505780636d00e9a014610670576103ef565b80631f3bb9bc116103865780633e75a9a8116103555780633e75a9a814610560578063413a0ed31461058057806348f3c009146105a05780634a088019146105ce57806352ee5bc7146105fb576103ef565b80631f3bb9bc146104eb5780632325b1801461051857806323eaa5df1461053857806328d0cad71461054d576103ef565b8063172e7bc9116103c2578063172e7bc9146104765780631746a2b41461048b578063193d4922146104ab5780631a69e173146104cb576103ef565b806302526490146103f45780630b379b1814610416578063114c3bcd1461044c57806311c7662414610461575b600080fd5b34801561040057600080fd5b5061041461040f366004614787565b610bec565b005b34801561042257600080fd5b506104366104313660046148e7565b610c50565b604051610443919061506b565b60405180910390f35b34801561045857600080fd5b50610414610d08565b34801561046d57600080fd5b50610436610da9565b34801561048257600080fd5b50610436610daf565b34801561049757600080fd5b506104146104a63660046144b9565b610db5565b3480156104b757600080fd5b506104146104c63660046148e7565b610df2565b3480156104d757600080fd5b506104146104e6366004614628565b610e56565b3480156104f757600080fd5b5061050b61050636600461486a565b610eef565b604051610443919061508a565b34801561052457600080fd5b50610436610533366004614628565b6114ad565b34801561054457600080fd5b5061043661150b565b61041461055b36600461427b565b611511565b34801561056c57600080fd5b5061041461057b36600461456b565b6115bb565b34801561058c57600080fd5b5061041461059b3660046145f6565b6115ef565b3480156105ac57600080fd5b506105c06105bb36600461486a565b6116b2565b604051610443929190615142565b3480156105da57600080fd5b506105ee6105e936600461436c565b611722565b6040516104439190615060565b34801561060757600080fd5b5061043661174a565b34801561061c57600080fd5b5061043661062b366004614341565b611750565b34801561063c57600080fd5b5061043661064b36600461427b565b61176d565b34801561065c57600080fd5b5061041461066b3660046148e7565b61177f565b34801561067c57600080fd5b5061043661068b36600461427b565b6117e3565b34801561069c57600080fd5b506104146117f5565b3480156106b157600080fd5b506104146106c0366004614539565b611863565b3480156106d157600080fd5b506104146106e0366004614539565b61193b565b3480156106f157600080fd5b506104146107003660046145f6565b611a07565b34801561071157600080fd5b506105ee61072036600461427b565b611aac565b34801561073157600080fd5b50610436610740366004614628565b611ad0565b34801561075157600080fd5b5061041461076036600461427b565b611b1f565b34801561077157600080fd5b5061077a611c4f565b6040516104439190614f47565b34801561079357600080fd5b50610436611c5f565b3480156107a857600080fd5b5061050b6107b73660046143d2565b611c65565b3480156107c857600080fd5b50610436611d44565b3480156107dd57600080fd5b506105ee611d4a565b3480156107f257600080fd5b50610436611d5b565b34801561080757600080fd5b50610436611d61565b34801561081c57600080fd5b5061043661082b3660046148e7565b611d67565b34801561083c57600080fd5b5061041461084b366004614297565b611d79565b34801561085c57600080fd5b5061043661086b3660046148b5565b611e8b565b34801561087c57600080fd5b5061041461088b3660046148e7565b612037565b61041461089e3660046142cf565b6120aa565b3480156108af57600080fd5b506104366120e8565b3480156108c457600080fd5b506104146108d3366004614838565b6120ee565b3480156108e457600080fd5b5061050b6121b9565b3480156108f957600080fd5b5061077a612244565b34801561090e57600080fd5b5061041461091d366004614923565b612253565b610414612276565b34801561093657600080fd5b50610414610945366004614787565b6122fc565b34801561095657600080fd5b5061043661096536600461427b565b61232d565b34801561097657600080fd5b5061043661233f565b34801561098b57600080fd5b5061050b61099a36600461437e565b612345565b3480156109ab57600080fd5b506104366109ba366004614838565b612393565b3480156109cb57600080fd5b506109df6109da36600461427b565b6123c3565b6040516104439190615013565b3480156109f857600080fd5b50610414610a073660046148e7565b6123e7565b348015610a1857600080fd5b50610436610a273660046148e7565b61245a565b348015610a3857600080fd5b506105ee610a47366004614485565b6124e7565b348015610a5857600080fd5b5061050b610a67366004614438565b612514565b348015610a7857600080fd5b50610414610a8736600461427b565b61259f565b348015610a9857600080fd5b50610436610aa7366004614628565b612645565b348015610ab857600080fd5b5061050b610ac736600461437e565b612661565b348015610ad857600080fd5b5061077a610ae736600461427b565b61278e565b348015610af857600080fd5b50610414610b07366004614838565b6127a9565b348015610b1857600080fd5b5061050b610b273660046143d2565b612aaf565b348015610b3857600080fd5b50610436610b473660046148ff565b612c02565b348015610b5857600080fd5b50610414610b67366004614649565b612c9a565b348015610b7857600080fd5b50610414610b8736600461427b565b612d06565b348015610b9857600080fd5b506105ee610ba736600461427b565b612d36565b348015610bb857600080fd5b50610414610bc73660046148e7565b612d53565b348015610bd857600080fd5b50610414610be73660046147e3565b612db7565b8015610c1c578251811015610c1c5760405162461bcd60e51b8152600401610c13906156d1565b60405180910390fd5b83516001600160a01b0316331415610c3757610c3783612e33565b610c4a6001338660008787600088612f15565b50505050565b6000610c5b33611aac565b610c775760405162461bcd60e51b8152600401610c1390615380565b336000908152600b60205260409020546005548103610c968482612fe3565b336000818152600b6020526040902082850390819055919450610cbf908563ffffffff612ff916565b336001600160a01b03167f79dc947028ead97dc90a91709ac7d54ce368511fc330841f227929937593388985604051610cf8919061506b565b60405180910390a2505050919050565b610d1133612d36565b15610d2e5760405162461bcd60e51b8152600401610c13906157d3565b336000908152600b602052604090205480610d5b5760405162461bcd60e51b8152600401610c1390615830565b336000818152600b6020526040812055610d7b908263ffffffff612ff916565b60405133907ffa9bbf66bded823e4fb9b6e3b204382872af75ef0fe0a330d82af5f84256b00e90600090a250565b60055481565b60085481565b60005b82811015610c4a57610dea848483818110610dcf57fe5b9050602002016020810190610de4919061427b565b83611d79565b600101610db8565b610dfa611d4a565b610e165760405162461bcd60e51b8152600401610c1390615574565b7f7ad23e704ae3ade0a94213eb580d92e6e1bce7243aab9eca2584936485d29e1c60055482604051610e49929190615bdc565b60405180910390a1600555565b336000908152600e6020908152604080832085845290915290205481811415610e915760405162461bcd60e51b8152600401610c1390615881565b336000818152600e6020908152604080832087845290915290819020849055517fc9fec98da4403e7d178ac928f2d08614c7121b0e1ae2fc4f607ebd48c623b48790610ee290869085908790615074565b60405180910390a2505050565b604080840151516001600160a01b039081166000908152600c6020529190912054606091610f1d9116611aac565b610f525750604080518082019091526014815273115e1958dd5d1bdc939bdd135a5b94dd185ad95960621b60208201526114a6565b604084015151610f639084846124e7565b610f97575060408051808201909152601381527250726f7669646572496c6c697175696469747960681b60208201526114a6565b6060610fb585602001518660400151610faf88613095565b86611c65565b9050610fc0816130c0565b610fcb5790506114a6565b6000610fd686612393565b865160009081526011602052604090205490915081146110285760405180604001604052806016815260200175092dcecc2d8d2c8a8c2e6d6a4cac6cad2e0e890c2e6d60531b815250925050506114a6565b60a08601511580159061103f5750428660a0015111155b15611078576040518060400160405280601281526020017115185cdad49958d95a5c1d115e1c1a5c995960721b815250925050506114a6565b61108186613095565b51511561120f5760005b61109487613095565b515181101561120d576110a687613095565b518051829081106110b357fe5b6020026020010151600001516001600160a01b031663a99891c588600001516110db8a613095565b518051859081106110e857fe5b6020026020010151602001518a60c001516040518463ffffffff1660e01b815260040161111793929190615bb3565b60006040518083038186803b15801561112f57600080fd5b505afa92505050801561116457506040513d6000823e601f3d908101601f191682016040526111619190810190614755565b60015b6111e657611170615c9c565b8061117b57506111a6565b8060405160200161118c9190614e65565b6040516020818303038152906040529450505050506114a6565b6040518060400160405280601b81526020017f436f6e646974696f6e52657665727465643a756e646566696e6564000000000081525093505050506114a6565b6111ef816130c0565b611204578060405160200161118c9190614ed8565b5060010161108b565b505b60005b61121b87613095565b60200151518110156113ff5761123087613095565b60200151818151811061123f57fe5b602002602001015160a00151611254576113f7565b61125d87613095565b60200151818151811061126c57fe5b6020026020010151600001516001600160a01b031663eb9e7126886000015189602001516112998b613095565b6020015185815181106112a857fe5b6020026020010151602001516112bd8c613095565b6020015186815181106112cc57fe5b6020026020010151606001516112e18d613095565b6020015187815181106112f057fe5b6020026020010151608001518d60c001516040518763ffffffff1660e01b815260040161132296959493929190615b61565b60006040518083038186803b15801561133a57600080fd5b505afa92505050801561136f57506040513d6000823e601f3d908101601f1916820160405261136c9190810190614755565b60015b6113d75761137b615c9c565b806113865750611397565b8060405160200161118c9190614e2e565b6040518060400160405280601781526020017f416374696f6e52657665727465644e6f4d65737361676500000000000000000081525093505050506114a6565b6113e0816130c0565b6113f5578060405160200161118c9190614e9f565b505b600101611212565b503330141561142c57604051806040016040528060028152602001614f4b60f01b815250925050506114a6565b604086810151516001600160a01b039081166000908152600c60205291909120541633141561147957604051806040016040528060028152602001614f4b60f01b815250925050506114a6565b6040518060400160405280600f81526020016e24b73b30b634b222bc32b1baba37b960891b815250925050505b9392505050565b6000806114c0848463ffffffff61313316565b905061150160646040518060600160405280602c8152602001615dda602c91396006546114f490859063ffffffff61313316565b919063ffffffff61316d16565b0190505b92915050565b60075481565b600034116115315760405162461bcd60e51b8152600401610c139061578b565b6001600160a01b0381166000908152600a602052604081205461155a903463ffffffff6131a416565b9050816001600160a01b03167f7eb3336aae9a3b461018823bcfbd81627ab3872ec4760568cb69599b3f572c873483604051611597929190615bdc565b60405180910390a26001600160a01b039091166000908152600a6020526040902055565b60005b81518110156115eb576115e38282815181106115d657fe5b60200260200101516120ee565b6001016115be565b5050565b60005b81518110156115eb5781818151811061160757fe5b6020026020010151604001516000141561163b5760001982828151811061162a57fe5b602002602001015160400181815250505b600061165983838151811061164c57fe5b6020026020010151611e8b565b905061167c8184848151811061166b57fe5b602002602001015160400151610e56565b604051819033907f57eba0f5699d16b2cdc399006d21f172c68772b9eb995702bb087eace7604fe890600090a3506001016115f2565b600060603330146116d55760405162461bcd60e51b8152600401610c139061542a565b60606116e2868686610eef565b90506116ed816130c0565b6116fc5760019250905061171a565b611705866131c9565b50506040805160208101909152600080825291505b935093915050565b6001600160a01b0382166000908152600f602052604081206114a6908363ffffffff6134a116565b60035481565b600e60209081526000928352604080842090915290825290205481565b600d6020526000908152604090205481565b611787611d4a565b6117a35760405162461bcd60e51b8152600401610c1390615574565b7fabed28d8267464321e12f0e7fb50f149327ccd924ca4f97169a81350c0000fcc600454826040516117d6929190615bdc565b60405180910390a1600455565b600b6020526000908152604090205481565b6117fd611d4a565b6118195760405162461bcd60e51b8152600401610c1390615574565b600080546040516001600160a01b03909116907f8be0079c531659141344cd1fd0a4f28419497f9722a3daafe3b4186f6b6457e0908390a3600080546001600160a01b0319169055565b60005b81518110156115eb5761188c3383838151811061187f57fe5b6020026020010151611722565b6118a85760405162461bcd60e51b8152600401610c13906155f3565b6118df8282815181106118b757fe5b602090810291909101810151336000908152600f90925260409091209063ffffffff6134bf16565b508181815181106118ec57fe5b60200260200101516001600160a01b0316336001600160a01b03167f7a88170de70a4f05aedbab44658e05b07a34686b1c3044c0a130763e613c34de60405160405180910390a3600101611866565b60005b81518110156115eb576119573383838151811061187f57fe5b156119745760405162461bcd60e51b8152600401610c1390615684565b6119ab82828151811061198357fe5b602090810291909101810151336000908152600f90925260409091209063ffffffff6135d216565b508181815181106119b857fe5b60200260200101516001600160a01b0316336001600160a01b03167f0b25d15701a5ba475e30812c6fb077ee6ecaa9337afe94b54fa2d673a7e264b960405160405180910390a360010161193e565b60005b81518110156115eb576000611a2483838151811061164c57fe5b336000908152600e60209081526040808320848452909152902054909150611a5e5760405162461bcd60e51b8152600401610c13906153dd565b336000818152600e60209081526040808320858452909152808220829055518392917fb1bd71728ee07f94bcab41c157fcdce5fbdeef0932e50955da5b60dfcb5c02f691a350600101611a0a565b6005546001600160a01b0382166000908152600b602052604090205410155b919050565b600080611ae3848463ffffffff61313316565b9050611b1760646040518060600160405280602e8152602001615e95602e91396007546114f490859063ffffffff61313316565b949350505050565b336000908152600c60205260409020546001600160a01b03908116908216811415611b5c5760405162461bcd60e51b8152600401610c13906158f5565b6001600160a01b03821615611b9057611b7482611aac565b611b905760405162461bcd60e51b8152600401610c1390615a2b565b6001600160a01b03811615611bc0576001600160a01b0381166000908152600d6020526040902080546000190190555b336000908152600c6020526040902080546001600160a01b0319166001600160a01b03841690811790915515611c10576001600160a01b0382166000908152600d60205260409020805460010190555b6040516001600160a01b03808416919083169033907f1a8b0d27a5b7dcaa3d4823d6e62cb91475b6db3711f348acd68dfd245647046190600090a45050565b6000546001600160a01b03165b90565b60065481565b606083600001516001600160a01b0316856001600160a01b03161415611cd0578183606001511015611ccb575060408051808201909152601881527f53656c6650726f766964657247617350726963654365696c00000000000000006020820152611b17565b611d30565b6000611cde61086b8561362b565b85516001600160a01b03166000908152600e60209081526040808320848452909152902054909150831115611d2e57604051806060016040528060238152602001615e3660239139915050611b17565b505b611d3b858585612661565b95945050505050565b60045481565b6000546001600160a01b0316331490565b61d6d881565b60095481565b60116020526000908152604090205481565b6001600160a01b038083166000908152600c602052604090205416338114611db35760405162461bcd60e51b8152600401610c13906154c1565b816001600160a01b0316816001600160a01b03161415611de55760405162461bcd60e51b8152600401610c1390615a88565b611dee82611aac565b611e0a5760405162461bcd60e51b8152600401610c139061572e565b6001600160a01b038181166000818152600d602081815260408084208054600019019055888616808552600c835281852080546001600160a01b031916978a16978817905586855292909152808320805460010190555190917fd71c850483c235524c816dbe9b5c11d4c3097788bf44f3cea4c969d91432681a91a4505050565b600060608260200151516001600160401b0381118015611eaa57600080fd5b50604051908082528060200260200182016040528015611ee457816020015b611ed1613b57565b815260200190600190039081611ec95790505b50905060005b83602001515181101561200457611eff613b57565b6040518060a0016040528086602001518481518110611f1a57fe5b6020026020010151600001516001600160a01b0316815260200186602001518481518110611f4457fe5b6020026020010151604001516001811115611f5b57fe5b815260200186602001518481518110611f7057fe5b6020026020010151606001516003811115611f8757fe5b815260200186602001518481518110611f9c57fe5b602002602001015160800151600014611fb6576001611fb9565b60005b1515815260200186602001518481518110611fd057fe5b602002602001015160a001511515815250905080838381518110611ff057fe5b602090810291909101015250600101611eea565b50825160405161201991908390602001614f87565b60405160208183030381529060405280519060200120915050919050565b61203f611d4a565b61205b5760405162461bcd60e51b8152600401610c1390615574565b7f0e2413d9141d1b6412c7ba967d457bf348f597f0e5bf6d5f82991c38f8b2923060065482600754840160405161209493929190615074565b60405180910390a1600681905560075401600855565b34156120b9576120b933611511565b6001600160a01b038316156120d1576120d183611b1f565b6120da826115ef565b6120e38161193b565b505050565b60001981565b80602001516001600160a01b0316336001600160a01b0316148061211f57506040810151516001600160a01b031633145b61213b5760405162461bcd60e51b8152600401610c139061517e565b600061214682612393565b825160009081526011602052604090205490915081146121785760405162461bcd60e51b8152600401610c13906151fb565b81516000908152601160205260408082208290558351905133927f744b8104621eb036ccd898df8af9eca45fdef9a44758a759b9a02edfc3c2253d91a35050565b6002805460408051602060018416156101000260001901909316849004601f8101849004840282018401909252818152929183018282801561223c5780601f106122115761010080835404028352916020019161223c565b820191906000526020600020905b81548152906001019060200180831161221f57829003601f168201915b505050505081565b6001546001600160a01b031681565b8215612264576122628361245a565b505b61226d82611a07565b6120e381611863565b336000908152600b6020526040902054600554348201908110156122ac5760405162461bcd60e51b8152600401610c1390615474565b336000818152600b602052604090819020839055517feb86fbd76202b1fb8ea477263ebbaa0ca039911aebfaa0d93aeaaf8f422d7772906122f09085908590615bdc565b60405180910390a25050565b83516001600160a01b03163314156123175761231783612e33565b610c4a600133866000878760008a518902612f15565b600a6020526000908152604090205481565b60105481565b606061234f613b87565b6123588361362b565b9050612368846000015182612514565b9150612373826130c0565b1561238b57612383858585612661565b9150506114a6565b509392505050565b6000816040516020016123a69190615ae5565b604051602081830303815290604052805190602001209050919050565b6001600160a01b0381166000908152600f6020526040902060609061150590613666565b6123ef611d4a565b61240b5760405162461bcd60e51b8152600401610c1390615574565b7f67e5ac0a08ca541e78d867cdf9766fb1e2e572cc4f1fe4a4f338ba5c585fd20c60075482836006540160405161244493929190615074565b60405180910390a1600781905560065401600855565b336000908152600a60205260408120546124748382612fe3565b336000818152600a602052604090208284039081905591935061249d908463ffffffff612ff916565b336001600160a01b03167fffd57c770591833d795262faf39af705c4e7f7428a2857f5a15b4c6d1c01e09f84836040516124d8929190615bdc565b60405180910390a25050919050565b6001600160a01b0383166000908152600a602052604081205461250a8484612645565b1115949350505050565b6001600160a01b0382166000908152600e6020526040812060609161253884611e8b565b8152602001908152602001600020546000141561257f575060408051808201909152601381527215185cdad4dc1958d39bdd141c9bdd9a591959606a1b6020820152611505565b506040805180820190915260028152614f4b60f01b602082015292915050565b6125a7611d4a565b6125c35760405162461bcd60e51b8152600401610c1390615574565b6001600160a01b0381166125e95760405162461bcd60e51b8152600401610c1390615998565b6001546040516001600160a01b038084169216907f3d30b06f36978acd3a6f74d861ea1b0e6d1ebe3d9d65a0e4c738d1b680a70f3a90600090a3600180546001600160a01b0319166001600160a01b0392909216919091179055565b60085460009061d6d88401830290606490820204019392505050565b606061267583600001518460200151611722565b6126ab5750604080518082019091526015815274496e76616c696450726f76696465724d6f64756c6560581b60208201526114a6565b82516001600160a01b0385811691161461276f5760208301518351604051633f17c3df60e01b81526001600160a01b03831691633f17c3df916126f49189918890600401614f5b565b60006040518083038186803b15801561270c57600080fd5b505afa92505050801561274157506040513d6000823e601f3d908101601f1916820160405261273e9190810190614755565b60015b61276657604051806060016040528060248152602001615d92602491399150506114a6565b91506114a69050565b506040805180820190915260028152614f4b60f01b60208201526114a6565b600c602052600090815260409020546001600160a01b031681565b60005a905060006127b8613721565b604084810151516001600160a01b039081166000908152600c60205291909120549192501633146127fb5760405162461bcd60e51b8152600401610c1390615643565b6000612806846137f7565b61281257600354612820565b61281b84613095565b604001515b905060006060306001600160a01b03166348f3c009612862600454604051806060016040528060218152602001615d71602191395a919063ffffffff61381416565b8886886040518563ffffffff1660e01b815260040161288393929190615af8565b600060405180830381600088803b15801561289d57600080fd5b5087f1935050505080156128d357506040513d6000823e601f3d908101601f191682016040526128d091908101906146f6565b60015b61291a576128df615c9c565b806128ea57506128f5565b600292509050612915565b60029150604051806060016040528060258152602001615f1a6025913990505b612920565b90925090505b600082600281111561292e57fe5b14156129a05760008061294d886040015160000151600089888a613840565b915091508760000151336001600160a01b03167f24676369d56b822255a2ba8afa7c68231dbbb5d324cd311d023fd37554da594e8484604051612991929190615bdc565b60405180910390a35050612aa7565b60018260028111156129ae57fe5b14156129f557855160405133907f5d326d4f0aa3ba9e690e44880c6750bdb3b93089be85717401ac419ae2c942a2906129e890859061508a565b60405180910390a3612aa7565b82851015612a3457855160405133907f582386e898e6a2854d5cc88154e27da9816ef33b0a260f010f2c17f3b385f9e6906129e8906000908690615165565b855160009081526011602052604080822082905587015151612a5a906001888789613840565b5090508660000151336001600160a01b03167f582386e898e6a2854d5cc88154e27da9816ef33b0a260f010f2c17f3b385f9e68385604051612a9d929190615165565b60405180910390a3505b505050505050565b82516001600160a01b039081166000908152600c6020526040902054606091612ad89116611aac565b612afc57604051806060016040528060308152602001615e06603091399050611b17565b8115612b2a5742821015612b2a57604051806060016040528060248152602001615db6602491399050611b17565b606084600001516001600160a01b0316866001600160a01b03161415612b9c57600454612b5e90600263ffffffff61313316565b84604001511015612b8a57604051806060016040528060358152602001615ee560359139915050611b17565b612b95868686612661565b9050612baa565b612ba7868686612345565b90505b612bb3816130c0565b612bdf5780604051602001612bc89190614d8d565b604051602081830303815290604052915050611b17565b50506040805180820190915260028152614f4b60f01b6020820152949350505050565b6000612c0c611d4a565b612c285760405162461bcd60e51b8152600401610c1390615574565b600954612c358482612fe3565b8082036009819055909250612c596001600160a01b0385168463ffffffff612ff916565b7f555f142d04d5fd169d7709fec5eda01b4d671371a74cda4734159a9863a13cd18282604051612c8a929190615bdc565b60405180910390a1505092915050565b612ca2611d4a565b612cbe5760405162461bcd60e51b8152600401610c1390615574565b7f980ecf343395980880528aff1988eab2b3c7284da56044b30cc0af8cb72bac3560028383604051612cf29392919061509d565b60405180910390a16120e360028383613ba8565b612d0e611d4a565b612d2a5760405162461bcd60e51b8152600401610c1390615574565b612d33816139ac565b50565b6001600160a01b03166000908152600d6020526040902054151590565b612d5b611d4a565b612d775760405162461bcd60e51b8152600401610c1390615574565b7fc6e11d62bd8aab57eb4e534cf62d7f0c9670522681d2559de9ac3ff7ef8325d360035482604051612daa929190615bdc565b60405180910390a1600355565b604080516001808252818301909252606091816020015b612dd6613c26565b815260200190600190039081612dce5790505090508281600081518110612df957fe5b602090810291909101015283516001600160a01b0316331415612e1f57612e1f81612e33565b610c4a600033866000858760006001612f15565b60005b81518110156115eb57818181518110612e4b57fe5b60200260200101516040015160001415612e8357600354828281518110612e6e57fe5b60200260200101516040018181525050612ecd565b600454612e9790600263ffffffff61313316565b828281518110612ea357fe5b6020026020010151604001511015612ecd5760405162461bcd60e51b8152600401610c1390615314565b818181518110612ed957fe5b60200260200101516060015160001415612f0d57600019828281518110612efc57fe5b602002602001015160600181815250505b600101612e36565b6010805460010190819055612f28613c4e565b6040518061010001604052808381526020018a6001600160a01b031681526020018981526020018881526020018781526020018681526020018b612f6c5785612f6e565b835b815260200184905290506000612f8382612393565b8251600090815260116020526040908190208290558351905191925082917f77be3ee486c6101ef6d894d85101234637da624e1bc54f11bd8e97174564b08e90612fce908690615ae5565b60405180910390a35050505050505050505050565b6000818310612ff257816114a6565b5090919050565b804710156130195760405162461bcd60e51b8152600401610c13906152dd565b6000826001600160a01b03168260405161303290611c5c565b60006040518083038185875af1925050503d806000811461306f576040519150601f19603f3d011682016040523d82523d6000602084013e613074565b606091505b50509050806120e35760405162461bcd60e51b8152600401610c1390615280565b61309d613c26565b81608001518260600151815181106130b157fe5b60200260200101519050919050565b600060028251101580156130f35750816000815181106130dc57fe5b6020910101516001600160f81b031916604f60f81b145b801561311e57508160018151811061310757fe5b6020910101516001600160f81b031916604b60f81b145b1561312b57506001611acb565b506000919050565b60008261314257506000611505565b8282028284828161314f57fe5b04146114a65760405162461bcd60e51b8152600401610c1390615533565b6000818361318e5760405162461bcd60e51b8152600401610c13919061508a565b50600083858161319a57fe5b0495945050505050565b6000828201838110156114a65760405162461bcd60e51b8152600401610c1390615249565b606060008260400151602001516001600160a01b03166306fca7288460000151856020015186604001516000015161320088613095565b8860c001516040518663ffffffff1660e01b8152600401613225959493929190615b1d565b60006040518083038186803b15801561323d57600080fd5b505afa92505050801561327257506040513d6000823e601f3d908101601f1916820160405261326f91908101906146b2565b60015b6132d85761327e615c9c565b8061328957506132c0565b8060405160200161329a9190614f02565b60408051601f198184030181529082905262461bcd60e51b8252610c139160040161508a565b60405162461bcd60e51b8152600401610c1390615952565b9092509050825160009081526011602090815260408083208390559085015190516060916001600160a01b031690613311908690614c68565b6000604051808303816000865af19150503d806000811461334e576040519150601f19603f3d011682016040523d82523d6000602084013e613353565b606091505b50915091508180156133625750825b15613404578460400151602001516001600160a01b0316633e88ecf4826040518263ffffffff1660e01b815260040161339b919061508a565b60006040518083038186803b1580156133b357600080fd5b505afa9250505080156133c4575060015b613404576133d0615c9c565b806133db57506133ec565b8060405160200161329a9190614ddf565b60405162461bcd60e51b8152600401610c13906159e1565b8115613461578460e0015160011461345c5761345c60008660200151876040015161342e89613a2d565b60808a015160a08b015160c08c015160e08d0151156134545760018d60e0015103613457565b60005b612f15565b61349a565b60408051808201909152601181527023b2b630ba37a1b7b932972fb2bc32b19d60791b602082015261349a90829063ffffffff613a4f16565b5050505050565b6001600160a01b031660009081526020919091526040902054151590565b60006134cb83836134a1565b156135ca576001600160a01b0382166000908152602084905260409020546001840154600019918201910180821461357657600085600101828154811061350e57fe5b6000918252602090912001546001870180546001600160a01b03909216925082918590811061353957fe5b600091825260208083209190910180546001600160a01b0319166001600160a01b0394851617905592909116815290869052604090206001830190555b6001600160a01b0384166000908152602086905260408120556001850180548061359c57fe5b600082815260209020810160001990810180546001600160a01b031916905501905550600191506115059050565b506000611505565b60006135de83836134a1565b6135ca57506001828101805480830182556000828152602080822090920180546001600160a01b0319166001600160a01b0387169081179091559254928152908590526040902055611505565b613633613b87565b604051806060016040528061364b8460000151613abb565b81526020018360200151815260200160008152509050919050565b600181015460609081906001600160401b038111801561368557600080fd5b506040519080825280602002602001820160405280156136af578160200160208202803683370190505b50905060005b600184015481101561371a578360010181815481106136d057fe5b9060005260206000200160009054906101000a90046001600160a01b03168282815181106136fa57fe5b6001600160a01b03909216602092830291909101909101526001016136b5565b5092915050565b60015460405160009182916060916001600160a01b03169061374590600290614c84565b600060405180830381855afa9150503d8060008114613780576040519150601f19603f3d011682016040523d82523d6000602084013e613785565b606091505b5091509150816137b8576137b8604051806060016040528060228152602001615ec360229139829063ffffffff613a4f16565b6000818060200190518101906137ce919061473d565b9050600081136137f05760405162461bcd60e51b8152600401610c13906155a9565b9250505090565b6020810151604090910151516001600160a01b0391821691161490565b600081848411156138385760405162461bcd60e51b8152600401610c13919061508a565b505050900390565b60008060005a86039050600085821061385d5761d6d88601613863565b61d6d882015b9050600088600181111561387357fe5b141561391d5761388381866114ad565b935061388f8186611ad0565b92506138e36138a4858563ffffffff6131a416565b6040518060600160405280603c8152602001615e59603c91396001600160a01b038c166000908152600a6020526040902054919063ffffffff61381416565b6001600160a01b038a166000908152600a6020908152604080832093909355338252600b90522080548501905560098054840190556139a0565b61392d818663ffffffff61313316565b9350613972846040518060600160405280603c8152602001615e59603c91396001600160a01b038c166000908152600a6020526040902054919063ffffffff61381416565b6001600160a01b038a166000908152600a6020908152604080832093909355338252600b9052208054850190555b50509550959350505050565b6001600160a01b0381166139d25760405162461bcd60e51b8152600401610c13906151b5565b600080546040516001600160a01b03808516939216917f8be0079c531659141344cd1fd0a4f28419497f9722a3daafe3b4186f6b6457e091a3600080546001600160a01b0319166001600160a01b0392909216919091179055565b600060018260800151510382606001511461312b578160600151600101611505565b6020825181613a5a57fe5b0660041415613aaa57602082015162461bcd60e51b6001600160e01b031982161415613a9957604483019250818360405160200161329a929190614cf4565b8160405160200161329a9190614d22565b8060405160200161329a9190614d55565b606081516001600160401b0381118015613ad457600080fd5b50604051908082528060200260200182016040528015613afe578160200160208202803683370190505b50905060005b8251811015613b5157828181518110613b1957fe5b602002602001015160000151828281518110613b3157fe5b6001600160a01b0390921660209283029190910190910152600101613b04565b50919050565b6040805160a081019091526000808252602082019081526020016000815260006020820181905260409091015290565b60405180606001604052806060815260200160608152602001600081525090565b828054600181600116156101000203166002900490600052602060002090601f016020900481019282601f10613be95782800160ff19823516178555613c16565b82800160010185558215613c16579182015b82811115613c16578235825591602001919060010190613bfb565b50613c22929150613c97565b5090565b6040518060800160405280606081526020016060815260200160008152602001600081525090565b604080516101008101825260008082526020820152908101613c6e613cb1565b815260200160008152602001606081526020016000815260200160008152602001600081525090565b611c5c91905b80821115613c225760008155600101613c9d565b604080518082019091526000808252602082015290565b803561150581615d4d565b600082601f830112613ce3578081fd5b8135613cf6613cf182615c10565b615bea565b818152915060208083019084810181840286018201871015613d1757600080fd5b60005b84811015613d3f578135613d2d81615d4d565b84529282019290820190600101613d1a565b505050505092915050565b600082601f830112613d5a578081fd5b8135613d68613cf182615c10565b818152915060208083019084810160005b84811015613d3f578135870160c080601f19838c03011215613d9a57600080fd5b613da381615bea565b85830135613db081615d4d565b81526040838101356001600160401b03811115613dcc57600080fd5b613dda8d8983880101613ef6565b888401525060608085013560028110613df257600080fd5b80838501525060809150613e088d838701613f8a565b9083015260a08481013582840152613e228d858701613eeb565b9083015250865250509282019290820190600101613d79565b600082601f830112613e4b578081fd5b8135613e59613cf182615c10565b818152915060208083019084810160005b84811015613d3f57613e81888484358a010161407d565b84529282019290820190600101613e6a565b600082601f830112613ea3578081fd5b8135613eb1613cf182615c10565b818152915060208083019084810160005b84811015613d3f57613ed9888484358a010161415d565b84529282019290820190600101613ec2565b803561150581615d62565b600082601f830112613f06578081fd5b8135613f14613cf182615c2f565b9150808252836020828501011115613f2b57600080fd5b8060208401602084013760009082016020015292915050565b600082601f830112613f54578081fd5b8151613f62613cf182615c2f565b9150808252836020828501011115613f7957600080fd5b61371a816020840160208601615c6a565b80356004811061150557600080fd5b600060408284031215613faa578081fd5b613fb46040615bea565b90508135613fc181615d4d565b81526020820135613fd181615d4d565b602082015292915050565b60006101208284031215613fee578081fd5b610100613ffa81615bea565b91508235825261400d8460208501613cc8565b602083015261401f8460408501613f99565b60408301526080830135606083015260a08301356001600160401b0381111561404757600080fd5b61405385828601613e93565b60808401525060c083013560a083015260e083013560c08301528083013560e08301525092915050565b60006060828403121561408e578081fd5b6140986060615bea565b905081356001600160401b03808211156140b157600080fd5b81840185601f8201126140c357600080fd5b803592506140d3613cf184615c10565b8084825260208083019250808401898283890287010111156140f457600080fd5b600094505b8685101561412057803561410c81615d4d565b8452600194909401939281019281016140f9565b508187528088013595508486111561413757600080fd5b61414389878a01613d4a565b818801525050505050506040820135604082015292915050565b60006080828403121561416e578081fd5b6141786080615bea565b905081356001600160401b038082111561419157600080fd5b81840185601f8201126141a357600080fd5b803592506141b3613cf184615c10565b8381526020808201919083810160005b878110156142335781358601604080601f19838f030112156141e457600080fd5b6141ed81615bea565b6141f98e878501613cc8565b8152818301358a81111561420c57600080fd5b61421a8f8883870101613ef6565b82880152508752505093820193908201906001016141c3565b50508187528088013595508486111561424b57600080fd5b61425789878a01613d4a565b81880152505050505050604082013560408201526060820135606082015292915050565b60006020828403121561428c578081fd5b81356114a681615d4d565b600080604083850312156142a9578081fd5b82356142b481615d4d565b915060208301356142c481615d4d565b809150509250929050565b6000806000606084860312156142e3578081fd5b83356142ee81615d4d565b925060208401356001600160401b0380821115614309578283fd5b61431587838801613e3b565b9350604086013591508082111561432a578283fd5b5061433786828701613cd3565b9150509250925092565b60008060408385031215614353578182fd5b823561435e81615d4d565b946020939093013593505050565b600080604083850312156142a9578182fd5b600080600060808486031215614392578081fd5b833561439d81615d4d565b92506143ac8560208601613f99565b915060608401356001600160401b038111156143c6578182fd5b6143378682870161415d565b60008060008060a085870312156143e7578182fd5b84356143f281615d4d565b93506144018660208701613f99565b925060608501356001600160401b0381111561441b578283fd5b6144278782880161415d565b949793965093946080013593505050565b6000806040838503121561444a578182fd5b823561445581615d4d565b915060208301356001600160401b0381111561446f578182fd5b61447b8582860161407d565b9150509250929050565b600080600060608486031215614499578081fd5b83356144a481615d4d565b95602085013595506040909401359392505050565b6000806000604084860312156144cd578081fd5b83356001600160401b03808211156144e3578283fd5b81860187601f8201126144f4578384fd5b8035925081831115614504578384fd5b8760208085028301011115614517578384fd5b602090810195509193505084013561452e81615d4d565b809150509250925092565b60006020828403121561454a578081fd5b81356001600160401b0381111561455f578182fd5b611b1784828501613cd3565b6000602080838503121561457d578182fd5b82356001600160401b03811115614592578283fd5b80840185601f8201126145a3578384fd5b803591506145b3613cf183615c10565b82815283810190828501865b858110156145e8576145d68a888435880101613fdc565b845292860192908601906001016145bf565b509098975050505050505050565b600060208284031215614607578081fd5b81356001600160401b0381111561461c578182fd5b611b1784828501613e3b565b6000806040838503121561463a578182fd5b50508035926020909101359150565b6000806020838503121561465b578182fd5b82356001600160401b0380821115614671578384fd5b81850186601f820112614682578485fd5b8035925081831115614692578485fd5b8660208483010111156146a3578485fd5b60200196919550909350505050565b600080604083850312156146c4578182fd5b82516001600160401b038111156146d9578283fd5b6146e585828601613f44565b92505060208301516142c481615d62565b60008060408385031215614708578182fd5b825160038110614716578283fd5b60208401519092506001600160401b03811115614731578182fd5b61447b85828601613f44565b60006020828403121561474e578081fd5b5051919050565b600060208284031215614766578081fd5b81516001600160401b0381111561477b578182fd5b611b1784828501613f44565b60008060008060a0858703121561479c578182fd5b6147a68686613f99565b935060408501356001600160401b038111156147c0578283fd5b6147cc87828801613e93565b949794965050505060608301359260800135919050565b6000806000608084860312156147f7578081fd5b6148018585613f99565b925060408401356001600160401b0381111561481b578182fd5b6148278682870161415d565b925050606084013590509250925092565b600060208284031215614849578081fd5b81356001600160401b0381111561485e578182fd5b611b1784828501613fdc565b60008060006060848603121561487e578081fd5b83356001600160401b03811115614893578182fd5b61489f86828701613fdc565b9660208601359650604090950135949350505050565b6000602082840312156148c6578081fd5b81356001600160401b038111156148db578182fd5b611b178482850161407d565b6000602082840312156148f8578081fd5b5035919050565b60008060408385031215614911578182fd5b8235915060208301356142c481615d4d565b600080600060608486031215614937578081fd5b8335925060208401356001600160401b0380821115614309578283fd5b6001600160a01b03169052565b6000815180845260208085018081965082840281019150828601855b85811015614a10578284038952815160c0614999868351614954565b8682015181888801526149ae82880182614a93565b604092508284015191506149c483890183614acc565b606092508284015191506149da83890183614abf565b6080848101519089015260a08085015190935091506149fb83890183614a63565b9b88019b96505050918501915060010161497d565b5091979650505050505050565b6000815180845260208085018081965082840281019150828601855b85811015614a10578284038952614a51848351614bd1565b98850198935090840190600101614a39565b15159052565b60008284528282602086013780602084860101526020601f19601f85011685010190509392505050565b60008151808452614aab816020860160208601615c6a565b601f01601f19169290920160200192915050565b614ac881615d43565b9052565b60028110614ac857fe5b600060018060a01b038251168352602082015160406020850152611b176040850182614a93565b80516001600160a01b0316825260208082015190614b1d90840182614acc565b506040810151614b2c81615d43565b60408301526060818101511515908301526080908101511515910152565b600061012082518452602083015160018060a01b0380821660208701526040850151915080825116604087015280602083015116606087015250506060830151608085015260808301518160a0860152614ba682860182614a1d565b60a085015160c087015260c085015160e087015260e085015161010087015280935050505092915050565b60006080830182516080855281815180845260a0870191506020935060a08482028801018484018694505b82851015614c2c57609f19898303018452614c18828251614ad6565b600195909501949386019391508501614bfc565b5084870151935087810385890152614c448185614961565b94505050505060408301516040850152606083015160608501528091505092915050565b60008251614c7a818460208701615c6a565b9190910192915050565b6000808354600180821660008114614ca35760018114614cba57614ce9565b60ff198316865260028304607f1686019350614ce9565b600283048786526020808720875b83811015614ce15781548a820152908501908201614cc8565b505050860193505b509195945050505050565b60008351614d06818460208801615c6a565b8351908301614d19828260208801615c6a565b01949350505050565b60008251614d34818460208701615c6a565b6e2737a2b93937b929b2b632b1ba37b960891b920191825250600f01919050565b60008251614d67818460208701615c6a565b73556e657870656374656452657475726e6461746160601b920191825250601401919050565b60007f47656c61746f436f72652e63616e5375626d69745461736b2e697350726f76698252633232b21d60e11b60208301528251614dd2816024850160208701615c6a565b9190910160240192915050565b60007f47656c61746f436f72652e5f657865632e65786563526576657274436865636b8252601d60f91b60208301528251614e21816021850160208701615c6a565b9190910160210192915050565b60006e20b1ba34b7b72932bb32b93a32b21d60891b82528251614e5881600f850160208701615c6a565b91909101600f0192915050565b60007121b7b73234ba34b7b72932bb32b93a32b21d60711b82528251614e92816012850160208701615c6a565b9190910160120192915050565b60007020b1ba34b7b72a32b936b9a737ba27b59d60791b82528251614ecb816011850160208701615c6a565b9190910160110192915050565b60006e21b7b73234ba34b7b72737ba27b59d60891b82528251614e5881600f850160208701615c6a565b60007f47656c61746f436f72652e5f657865632e657865635061796c6f61643a00000082528251614f3a81601d850160208701615c6a565b91909101601d0192915050565b6001600160a01b0391909116815260200190565b6001600160a01b03848116825283166020820152606060408201819052600090611d3b90830184614bd1565b604080825283519082018190526000906020906060840190828701845b82811015614fc857614fb68251615c5e565b84529284019290840190600101614fa4565b50505083810382850152845180825285830191830190845b8181101561500657614ff3838551614afd565b9284019260a09290920191600101614fe0565b5090979650505050505050565b6020808252825182820181905260009190848201906040850190845b818110156150545783516001600160a01b03168352928401929184019160010161502f565b50909695505050505050565b901515815260200190565b90815260200190565b9283526020830191909152604082015260600190565b6000602082526114a66020830184614a93565b600060408201604083528186546001808216600081146150c457600181146150e557615121565b6150d4607f60028504168661506b565b60ff19841681526020019350615121565b600283046150f3818761506b565b6150fc8c615c52565b885b8381101561511857815483820152908501906020016150fe565b91909101955050505b5050508381036020850152615137818688614a69565b979650505050505050565b60006003841061514e57fe5b83825260406020830152611b176040830184614a93565b600083825260406020830152611b176040830184614a93565b6020808252601d908201527f47656c61746f436f72652e63616e63656c5461736b3a2073656e646572000000604082015260600190565b60208082526026908201527f4f776e61626c653a206e6577206f776e657220697320746865207a65726f206160408201526564647265737360d01b606082015260800190565b6020808252602e908201527f47656c61746f436f72652e63616e63656c5461736b3a20696e76616c6964207460408201526d0c2e6d6a4cac6cad2e0e890c2e6d60931b606082015260800190565b6020808252601b908201527f536166654d6174683a206164646974696f6e206f766572666c6f770000000000604082015260600190565b6020808252603a908201527f416464726573733a20756e61626c6520746f2073656e642076616c75652c207260408201527f6563697069656e74206d61792068617665207265766572746564000000000000606082015260800190565b6020808252601d908201527f416464726573733a20696e73756666696369656e742062616c616e6365000000604082015260600190565b60208082526046908201527f47656c61746f436f72652e5f68616e646c6553656c6650726f7669646572476160408201527f7344656661756c74733a73656c6650726f76696465724761734c696d697420746060820152656f6f206c6f7760d01b608082015260a00190565b6020808252603a908201527f47656c61746f4578656375746f72732e7769746864726177457863657373457860408201527f656375746f725374616b653a206e6f74206d696e5374616b6564000000000000606082015260800190565b6020808252602d908201527f47656c61746f50726f7669646572732e756e70726f766964655461736b53706560408201526c18dcce881c99591d5b99185b9d609a1b606082015260800190565b6020808252602a908201527f47656c61746f436f72652e657865637574696f6e577261707065723a6f6e6c7960408201526947656c61746f436f726560b01b606082015260800190565b6020808252602d908201527f47656c61746f4578656375746f72732e7374616b654578656375746f723a206260408201526c656c6f77206d696e5374616b6560981b606082015260800190565b6020808252604c908201527f47656c61746f50726f7669646572732e6578656375746f7241737369676e734560408201527f78656375746f723a206d73672e73656e646572206973206e6f7420617373696760608201526b3732b21032bc32b1baba37b960a11b608082015260a00190565b60208082526021908201527f536166654d6174683a206d756c7469706c69636174696f6e206f766572666c6f6040820152607760f81b606082015260800190565b6020808252818101527f4f776e61626c653a2063616c6c6572206973206e6f7420746865206f776e6572604082015260600190565b6020808252602a908201527f47656c61746f53797341646d696e2e5f67657447656c61746f47617350726963604082015269653a306f7242656c6f7760b01b606082015260800190565b60208082526030908201527f47656c61746f50726f7669646572732e72656d6f766550726f76696465724d6f60408201526f191d5b195cce881c99591d5b99185b9d60821b606082015260800190565b60208082526021908201527f47656c61746f436f72652e657865633a20496e76616c6964204578656375746f6040820152603960f91b606082015260800190565b6020808252602d908201527f47656c61746f50726f7669646572732e61646450726f76696465724d6f64756c60408201526c195cce881c99591d5b99185b9d609a1b606082015260800190565b6020808252603d908201527f47656c61746f436f72652e7375626d69745461736b436861696e3a206c65737360408201527f20726571756573746564207375626d697473207468616e207461736b73000000606082015260800190565b6020808252603e908201527f47656c61746f50726f7669646572732e6578656375746f7241737369676e734560408201527f78656375746f723a2069734578656375746f724d696e5374616b656428290000606082015260800190565b60208082526028908201527f47656c61746f50726f7669646572732e70726f7669646546756e64733a207a65604082015267726f2076616c756560c01b606082015260800190565b6020808252603a908201527f47656c61746f4578656375746f72732e756e7374616b654578656375746f723a60408201527f206d73672e73656e646572207374696c6c2061737369676e6564000000000000606082015260800190565b60208082526031908201527f47656c61746f4578656375746f72732e756e7374616b654578656375746f723a60408201527008185b1c9958591e481d5b9cdd185ad959607a1b606082015260800190565b6020808252604e908201527f47656c61746f50726f7669646572732e7365745461736b53706563476173507260408201527f6963654365696c3a20416c72656164792077686974656c69737465642077697460608201526d1a0819d85cd41c9a58d950d95a5b60921b608082015260a00190565b6020808252603a908201527f47656c61746f50726f7669646572732e70726f766964657241737369676e734560408201527f78656375746f723a20616c72656164792061737369676e65642e000000000000606082015260800190565b60208082526026908201527f47656c61746f436f72652e5f657865632e657865635061796c6f61643a756e6460408201526519599a5b995960d21b606082015260800190565b60208082526029908201527f47656c61746f53797341646d696e2e73657447656c61746f476173507269636560408201526804f7261636c653a20360bc1b606082015260800190565b6020808252602a908201527f47656c61746f436f72652e5f657865632e65786563526576657274436865636b6040820152690e9d5b9919599a5b995960b21b606082015260800190565b6020808252603e908201527f47656c61746f50726f7669646572732e70726f766964657241737369676e734560408201527f78656375746f723a2069734578656375746f724d696e5374616b656428290000606082015260800190565b6020808252603a908201527f47656c61746f50726f7669646572732e6578656375746f7241737369676e734560408201527f78656375746f723a20616c72656164792061737369676e65642e000000000000606082015260800190565b6000602082526114a66020830184614b4a565b600060608252615b0b6060830186614b4a565b60208301949094525060400152919050565b8581526001600160a01b0385811660208301528416604082015260a060608201819052600090615b4f90830185614bd1565b90508260808301529695505050505050565b8681526001600160a01b038616602082015260c060408201819052600090615b8b90830187614a93565b9050615b9685615d43565b8460608301528360808301528260a0830152979650505050505050565b600084825260606020830152615bcc6060830185614a93565b9050826040830152949350505050565b918252602082015260400190565b6040518181016001600160401b0381118282101715615c0857600080fd5b604052919050565b60006001600160401b03821115615c25578081fd5b5060209081020190565b60006001600160401b03821115615c44578081fd5b50601f01601f191660200190565b60009081526020902090565b6001600160a01b031690565b60005b83811015615c85578181015183820152602001615c6d565b83811115610c4a5750506000910152565b60e01c90565b600060443d1015615cac57611c5c565b600481823e6308c379a0615cc08251615c96565b14615cca57611c5c565b6040513d600319016004823e80513d6001600160401b038160248401118184111715615cf95750505050611c5c565b82840191508151925080831115615d135750505050611c5c565b503d83016020838301011115615d2b57505050611c5c565b601f91909101601f1916810160200160405291505090565b60048110612d3357fe5b6001600160a01b0381168114612d3357600080fd5b8015158114612d3357600080fdfe47656c61746f436f72652e657865633a20496e73756666696369656e742067617347656c61746f50726f7669646572732e70726f76696465724d6f64756c65436865636b7347656c61746f436f72652e63616e5375626d69745461736b3a206578706972794461746547656c61746f53797341646d696e2e6578656375746f72537563636573734665653a20646976206572726f7247656c61746f436f72652e63616e5375626d69745461736b3a206578656375746f72206e6f74206d696e5374616b65647461736b5370656347617350726963654365696c2d4f522d6e6f7450726f766964656447656c61746f436f72652e5f70726f6365737350726f766964657250617961626c65733a2070726f766964657246756e647320756e646572666c6f7747656c61746f53797341646d696e2e73797341646d696e5375636365737353686172653a20646976206572726f7247656c61746f53797341646d696e2e5f67657447656c61746f47617350726963653a47656c61746f436f72652e63616e5375626d69745461736b3a73656c6650726f76696465724761734c696d697420746f6f206c6f7747656c61746f436f72652e657865637574696f6e577261707065723a756e646566696e6564a2646970667358221220270c1fc00c3b8119649fce05842ce508354ccf557dab8ac78c1f084a9926c0a964736f6c634300060a0033",
  "devdoc": {
    "author": "Luis Schliesske & Hilmar Orth",
    "details": "Find all NatSpecs inside IGelatoCore",
    "methods": {
      "isOwner()": {
        "details": "Returns true if the caller is the current owner."
      },
      "owner()": {
        "details": "Returns the address of the current owner."
      },
      "renounceOwnership()": {
        "details": "Leaves the contract without owner. It will not be possible to call `onlyOwner` functions anymore. Can only be called by the current owner. NOTE: Renouncing ownership will leave the contract without an owner, thereby removing any functionality that is only available to the owner."
      },
      "transferOwnership(address)": {
        "details": "Transfers ownership of the contract to a new account (`newOwner`). Can only be called by the current owner."
      }
    },
    "title": "GelatoCore"
  },
  "userdoc": {
    "methods": {},
    "notice": "Task: submission, validation, execution, and cancellation"
  },
  "storageLayout": {
    "storage": [
      {
        "astId": 510,
        "contract": "contracts/gelato_core/GelatoCore.sol:GelatoCore",
        "label": "_owner",
        "offset": 0,
        "slot": "0",
        "type": "t_address"
      },
      {
        "astId": 10223,
        "contract": "contracts/gelato_core/GelatoCore.sol:GelatoCore",
        "label": "gelatoGasPriceOracle",
        "offset": 0,
        "slot": "1",
        "type": "t_address"
      },
      {
        "astId": 10226,
        "contract": "contracts/gelato_core/GelatoCore.sol:GelatoCore",
        "label": "oracleRequestData",
        "offset": 0,
        "slot": "2",
        "type": "t_bytes_storage"
      },
      {
        "astId": 10229,
        "contract": "contracts/gelato_core/GelatoCore.sol:GelatoCore",
        "label": "gelatoMaxGas",
        "offset": 0,
        "slot": "3",
        "type": "t_uint256"
      },
      {
        "astId": 10232,
        "contract": "contracts/gelato_core/GelatoCore.sol:GelatoCore",
        "label": "internalGasRequirement",
        "offset": 0,
        "slot": "4",
        "type": "t_uint256"
      },
      {
        "astId": 10235,
        "contract": "contracts/gelato_core/GelatoCore.sol:GelatoCore",
        "label": "minExecutorStake",
        "offset": 0,
        "slot": "5",
        "type": "t_uint256"
      },
      {
        "astId": 10238,
        "contract": "contracts/gelato_core/GelatoCore.sol:GelatoCore",
        "label": "executorSuccessShare",
        "offset": 0,
        "slot": "6",
        "type": "t_uint256"
      },
      {
        "astId": 10241,
        "contract": "contracts/gelato_core/GelatoCore.sol:GelatoCore",
        "label": "sysAdminSuccessShare",
        "offset": 0,
        "slot": "7",
        "type": "t_uint256"
      },
      {
        "astId": 10244,
        "contract": "contracts/gelato_core/GelatoCore.sol:GelatoCore",
        "label": "totalSuccessShare",
        "offset": 0,
        "slot": "8",
        "type": "t_uint256"
      },
      {
        "astId": 10247,
        "contract": "contracts/gelato_core/GelatoCore.sol:GelatoCore",
        "label": "sysAdminFunds",
        "offset": 0,
        "slot": "9",
        "type": "t_uint256"
      },
      {
        "astId": 9182,
        "contract": "contracts/gelato_core/GelatoCore.sol:GelatoCore",
        "label": "providerFunds",
        "offset": 0,
        "slot": "10",
        "type": "t_mapping(t_address,t_uint256)"
      },
      {
        "astId": 9187,
        "contract": "contracts/gelato_core/GelatoCore.sol:GelatoCore",
        "label": "executorStake",
        "offset": 0,
        "slot": "11",
        "type": "t_mapping(t_address,t_uint256)"
      },
      {
        "astId": 9192,
        "contract": "contracts/gelato_core/GelatoCore.sol:GelatoCore",
        "label": "executorByProvider",
        "offset": 0,
        "slot": "12",
        "type": "t_mapping(t_address,t_address)"
      },
      {
        "astId": 9197,
        "contract": "contracts/gelato_core/GelatoCore.sol:GelatoCore",
        "label": "executorProvidersCount",
        "offset": 0,
        "slot": "13",
        "type": "t_mapping(t_address,t_uint256)"
      },
      {
        "astId": 9204,
        "contract": "contracts/gelato_core/GelatoCore.sol:GelatoCore",
        "label": "taskSpecGasPriceCeil",
        "offset": 0,
        "slot": "14",
        "type": "t_mapping(t_address,t_mapping(t_bytes32,t_uint256))"
      },
      {
        "astId": 9208,
        "contract": "contracts/gelato_core/GelatoCore.sol:GelatoCore",
        "label": "_providerModules",
        "offset": 0,
        "slot": "15",
        "type": "t_mapping(t_address,t_struct(Set)12992_storage)"
      },
      {
        "astId": 7554,
        "contract": "contracts/gelato_core/GelatoCore.sol:GelatoCore",
        "label": "currentTaskReceiptId",
        "offset": 0,
        "slot": "16",
        "type": "t_uint256"
      },
      {
        "astId": 7559,
        "contract": "contracts/gelato_core/GelatoCore.sol:GelatoCore",
        "label": "taskReceiptHash",
        "offset": 0,
        "slot": "17",
        "type": "t_mapping(t_uint256,t_bytes32)"
      }
    ],
    "types": {
      "t_address": {
        "encoding": "inplace",
        "label": "address",
        "numberOfBytes": "20"
      },
      "t_array(t_contract(IGelatoProviderModule)11609)dyn_storage": {
        "base": "t_contract(IGelatoProviderModule)11609",
        "encoding": "dynamic_array",
        "label": "contract IGelatoProviderModule[]",
        "numberOfBytes": "32"
      },
      "t_bytes32": {
        "encoding": "inplace",
        "label": "bytes32",
        "numberOfBytes": "32"
      },
      "t_bytes_storage": {
        "encoding": "bytes",
        "label": "bytes",
        "numberOfBytes": "32"
      },
      "t_contract(IGelatoProviderModule)11609": {
        "encoding": "inplace",
        "label": "contract IGelatoProviderModule",
        "numberOfBytes": "20"
      },
      "t_mapping(t_address,t_address)": {
        "encoding": "mapping",
        "key": "t_address",
        "label": "mapping(address => address)",
        "numberOfBytes": "32",
        "value": "t_address"
      },
      "t_mapping(t_address,t_mapping(t_bytes32,t_uint256))": {
        "encoding": "mapping",
        "key": "t_address",
        "label": "mapping(address => mapping(bytes32 => uint256))",
        "numberOfBytes": "32",
        "value": "t_mapping(t_bytes32,t_uint256)"
      },
      "t_mapping(t_address,t_struct(Set)12992_storage)": {
        "encoding": "mapping",
        "key": "t_address",
        "label": "mapping(address => struct ProviderModuleSet.Set)",
        "numberOfBytes": "32",
        "value": "t_struct(Set)12992_storage"
      },
      "t_mapping(t_address,t_uint256)": {
        "encoding": "mapping",
        "key": "t_address",
        "label": "mapping(address => uint256)",
        "numberOfBytes": "32",
        "value": "t_uint256"
      },
      "t_mapping(t_bytes32,t_uint256)": {
        "encoding": "mapping",
        "key": "t_bytes32",
        "label": "mapping(bytes32 => uint256)",
        "numberOfBytes": "32",
        "value": "t_uint256"
      },
      "t_mapping(t_contract(IGelatoProviderModule)11609,t_uint256)": {
        "encoding": "mapping",
        "key": "t_contract(IGelatoProviderModule)11609",
        "label": "mapping(contract IGelatoProviderModule => uint256)",
        "numberOfBytes": "32",
        "value": "t_uint256"
      },
      "t_mapping(t_uint256,t_bytes32)": {
        "encoding": "mapping",
        "key": "t_uint256",
        "label": "mapping(uint256 => bytes32)",
        "numberOfBytes": "32",
        "value": "t_bytes32"
      },
      "t_struct(Set)12992_storage": {
        "encoding": "inplace",
        "label": "struct ProviderModuleSet.Set",
        "members": [
          {
            "astId": 12988,
            "contract": "contracts/gelato_core/GelatoCore.sol:GelatoCore",
            "label": "index",
            "offset": 0,
            "slot": "0",
            "type": "t_mapping(t_contract(IGelatoProviderModule)11609,t_uint256)"
          },
          {
            "astId": 12991,
            "contract": "contracts/gelato_core/GelatoCore.sol:GelatoCore",
            "label": "modules",
            "offset": 0,
            "slot": "1",
            "type": "t_array(t_contract(IGelatoProviderModule)11609)dyn_storage"
          }
        ],
        "numberOfBytes": "64"
      },
      "t_uint256": {
        "encoding": "inplace",
        "label": "uint256",
        "numberOfBytes": "32"
      }
    }
  }
}